{
  "_format": "hh-sol-artifact-1",
  "contractName": "SafeCastMock",
  "sourceName": "contracts/oz/mocks/SafeCastMock.sol",
  "abi": [
    {
      "inputs": [
        {
          "internalType": "uint256",
          "name": "a",
          "type": "uint256"
        }
      ],
      "name": "toInt256",
      "outputs": [
        {
          "internalType": "int256",
          "name": "",
          "type": "int256"
        }
      ],
      "stateMutability": "pure",
      "type": "function"
    },
    {
      "inputs": [
        {
          "internalType": "uint256",
          "name": "a",
          "type": "uint256"
        }
      ],
      "name": "toUint128",
      "outputs": [
        {
          "internalType": "uint128",
          "name": "",
          "type": "uint128"
        }
      ],
      "stateMutability": "pure",
      "type": "function"
    },
    {
      "inputs": [
        {
          "internalType": "uint256",
          "name": "a",
          "type": "uint256"
        }
      ],
      "name": "toUint16",
      "outputs": [
        {
          "internalType": "uint16",
          "name": "",
          "type": "uint16"
        }
      ],
      "stateMutability": "pure",
      "type": "function"
    },
    {
      "inputs": [
        {
          "internalType": "int256",
          "name": "a",
          "type": "int256"
        }
      ],
      "name": "toUint256",
      "outputs": [
        {
          "internalType": "uint256",
          "name": "",
          "type": "uint256"
        }
      ],
      "stateMutability": "pure",
      "type": "function"
    },
    {
      "inputs": [
        {
          "internalType": "uint256",
          "name": "a",
          "type": "uint256"
        }
      ],
      "name": "toUint32",
      "outputs": [
        {
          "internalType": "uint32",
          "name": "",
          "type": "uint32"
        }
      ],
      "stateMutability": "pure",
      "type": "function"
    },
    {
      "inputs": [
        {
          "internalType": "uint256",
          "name": "a",
          "type": "uint256"
        }
      ],
      "name": "toUint64",
      "outputs": [
        {
          "internalType": "uint64",
          "name": "",
          "type": "uint64"
        }
      ],
      "stateMutability": "pure",
      "type": "function"
    },
    {
      "inputs": [
        {
          "internalType": "uint256",
          "name": "a",
          "type": "uint256"
        }
      ],
      "name": "toUint8",
      "outputs": [
        {
          "internalType": "uint8",
          "name": "",
          "type": "uint8"
        }
      ],
      "stateMutability": "pure",
      "type": "function"
    }
  ],
  "bytecode": "0x608060405234801561001057600080fd5b5061054c806100206000396000f3fe608060405234801561001057600080fd5b506004361061007d5760003560e01c80639374068f1161005b5780639374068f14610131578063c819325514610165578063dfbe873b1461019b578063fdcf791b146101ca5761007d565b80630cc4681e146100825780632665fad0146100b5578063809fdd33146100ef575b600080fd5b61009f6004803603602081101561009857600080fd5b50356101e7565b6040805160ff9092168252519081900360200190f35b6100d2600480360360208110156100cb57600080fd5b50356101f8565b6040805167ffffffffffffffff9092168252519081900360200190f35b61010c6004803603602081101561010557600080fd5b5035610203565b604080516fffffffffffffffffffffffffffffffff9092168252519081900360200190f35b61014e6004803603602081101561014757600080fd5b503561020e565b6040805161ffff9092168252519081900360200190f35b6101826004803603602081101561017b57600080fd5b5035610219565b6040805163ffffffff9092168252519081900360200190f35b6101b8600480360360208110156101b157600080fd5b5035610224565b60408051918252519081900360200190f35b6101b8600480360360208110156101e057600080fd5b503561022f565b60006101f28261023a565b92915050565b60006101f282610280565b60006101f2826102c9565b60006101f28261030d565b60006101f282610350565b60006101f282610395565b60006101f2826103d9565b6000610100821061027c5760405162461bcd60e51b81526004018080602001828103825260258152602001806104576025913960400191505060405180910390fd5b5090565b600068010000000000000000821061027c5760405162461bcd60e51b81526004018080602001828103825260268152602001806104a36026913960400191505060405180910390fd5b6000600160801b821061027c5760405162461bcd60e51b815260040180806020018281038252602781526020018061047c6027913960400191505060405180910390fd5b600062010000821061027c5760405162461bcd60e51b81526004018080602001828103825260268152602001806104316026913960400191505060405180910390fd5b6000640100000000821061027c5760405162461bcd60e51b81526004018080602001828103825260268152602001806104c96026913960400191505060405180910390fd5b6000600160ff1b821061027c5760405162461bcd60e51b81526004018080602001828103825260288152602001806104ef6028913960400191505060405180910390fd5b60008082121561027c576040805162461bcd60e51b815260206004820181905260248201527f53616665436173743a2076616c7565206d75737420626520706f736974697665604482015290519081900360640190fdfe53616665436173743a2076616c756520646f65736e27742066697420696e203136206269747353616665436173743a2076616c756520646f65736e27742066697420696e2038206269747353616665436173743a2076616c756520646f65736e27742066697420696e20313238206269747353616665436173743a2076616c756520646f65736e27742066697420696e203634206269747353616665436173743a2076616c756520646f65736e27742066697420696e203332206269747353616665436173743a2076616c756520646f65736e27742066697420696e20616e20696e74323536a26469706673582212209a8096196d4f1c231259b67cc235f88d2aaebf94984fa53feba78cd1890dbb4f64736f6c63430006060033",
  "linkReferences": {},
  "deployedLinkReferences": {}
}