{
  "_format": "hh-sol-artifact-1",
  "contractName": "GSNRecipientERC20FeeMock",
  "sourceName": "contracts/oz/mocks/GSNRecipientERC20FeeMock.sol",
  "abi": [
    {
      "inputs": [
        {
          "internalType": "string",
          "name": "name",
          "type": "string"
        },
        {
          "internalType": "string",
          "name": "symbol",
          "type": "string"
        }
      ],
      "stateMutability": "nonpayable",
      "type": "constructor"
    },
    {
      "anonymous": false,
      "inputs": [
        {
          "indexed": false,
          "internalType": "uint256",
          "name": "senderBalance",
          "type": "uint256"
        }
      ],
      "name": "MockFunctionCalled",
      "type": "event"
    },
    {
      "anonymous": false,
      "inputs": [
        {
          "indexed": true,
          "internalType": "address",
          "name": "oldRelayHub",
          "type": "address"
        },
        {
          "indexed": true,
          "internalType": "address",
          "name": "newRelayHub",
          "type": "address"
        }
      ],
      "name": "RelayHubChanged",
      "type": "event"
    },
    {
      "inputs": [
        {
          "internalType": "address",
          "name": "",
          "type": "address"
        },
        {
          "internalType": "address",
          "name": "from",
          "type": "address"
        },
        {
          "internalType": "bytes",
          "name": "",
          "type": "bytes"
        },
        {
          "internalType": "uint256",
          "name": "transactionFee",
          "type": "uint256"
        },
        {
          "internalType": "uint256",
          "name": "gasPrice",
          "type": "uint256"
        },
        {
          "internalType": "uint256",
          "name": "",
          "type": "uint256"
        },
        {
          "internalType": "uint256",
          "name": "",
          "type": "uint256"
        },
        {
          "internalType": "bytes",
          "name": "",
          "type": "bytes"
        },
        {
          "internalType": "uint256",
          "name": "maxPossibleCharge",
          "type": "uint256"
        }
      ],
      "name": "acceptRelayedCall",
      "outputs": [
        {
          "internalType": "uint256",
          "name": "",
          "type": "uint256"
        },
        {
          "internalType": "bytes",
          "name": "",
          "type": "bytes"
        }
      ],
      "stateMutability": "view",
      "type": "function"
    },
    {
      "inputs": [],
      "name": "getHubAddr",
      "outputs": [
        {
          "internalType": "address",
          "name": "",
          "type": "address"
        }
      ],
      "stateMutability": "view",
      "type": "function"
    },
    {
      "inputs": [
        {
          "internalType": "address",
          "name": "account",
          "type": "address"
        },
        {
          "internalType": "uint256",
          "name": "amount",
          "type": "uint256"
        }
      ],
      "name": "mint",
      "outputs": [],
      "stateMutability": "nonpayable",
      "type": "function"
    },
    {
      "inputs": [],
      "name": "mockFunction",
      "outputs": [],
      "stateMutability": "nonpayable",
      "type": "function"
    },
    {
      "inputs": [
        {
          "internalType": "bytes",
          "name": "context",
          "type": "bytes"
        },
        {
          "internalType": "bool",
          "name": "success",
          "type": "bool"
        },
        {
          "internalType": "uint256",
          "name": "actualCharge",
          "type": "uint256"
        },
        {
          "internalType": "bytes32",
          "name": "preRetVal",
          "type": "bytes32"
        }
      ],
      "name": "postRelayedCall",
      "outputs": [],
      "stateMutability": "nonpayable",
      "type": "function"
    },
    {
      "inputs": [
        {
          "internalType": "bytes",
          "name": "context",
          "type": "bytes"
        }
      ],
      "name": "preRelayedCall",
      "outputs": [
        {
          "internalType": "bytes32",
          "name": "",
          "type": "bytes32"
        }
      ],
      "stateMutability": "nonpayable",
      "type": "function"
    },
    {
      "inputs": [],
      "name": "relayHubVersion",
      "outputs": [
        {
          "internalType": "string",
          "name": "",
          "type": "string"
        }
      ],
      "stateMutability": "view",
      "type": "function"
    },
    {
      "inputs": [],
      "name": "token",
      "outputs": [
        {
          "internalType": "contract IERC20",
          "name": "",
          "type": "address"
        }
      ],
      "stateMutability": "view",
      "type": "function"
    }
  ],
  "bytecode": "0x6080604052600080546001600160a01b03191673d216153c06e857cd7f72665e0af1d7d82172f4941790553480156200003757600080fd5b50604051620022c3380380620022c3833981810160405260408110156200005d57600080fd5b81019080805160405193929190846401000000008211156200007e57600080fd5b9083019060208201858111156200009457600080fd5b8251640100000000811182820188101715620000af57600080fd5b82525081516020918201929091019080838360005b83811015620000de578181015183820152602001620000c4565b50505050905090810190601f1680156200010c5780820380516001836020036101000a031916815260200191505b50604052602001805160405193929190846401000000008211156200013057600080fd5b9083019060208201858111156200014657600080fd5b82516401000000008111828201881017156200016157600080fd5b82525081516020918201929091019080838360005b838110156200019057818101518382015260200162000176565b50505050905090810190601f168015620001be5780820380516001836020036101000a031916815260200191505b5060405250505081818181604051620001d790620002f5565b604080825283519082015282518190602080830191606084019187019080838360005b8381101562000214578181015183820152602001620001fa565b50505050905090810190601f168015620002425780820380516001836020036101000a031916815260200191505b50838103825284518152845160209182019186019080838360005b83811015620002775781810151838201526020016200025d565b50505050905090810190601f168015620002a55780820380516001836020036101000a031916815260200191505b50945050505050604051809103906000f080158015620002c9573d6000803e3d6000fd5b50600180546001600160a01b0319166001600160a01b0392909216919091179055506200030392505050565b611224806200109f83390190565b610d8c80620003136000396000f3fe608060405234801561001057600080fd5b50600436106100885760003560e01c806383947ea01161005b57806383947ea01461019d578063ad61ccd514610379578063e06e0e22146103f6578063fc0c546a146104a757610088565b80633e6fec041461008d57806340c10f191461009757806374e861d6146100c357806380274db7146100e7575b600080fd5b6100956104af565b005b610095600480360360408110156100ad57600080fd5b506001600160a01b038135169060200135610573565b6100cb610581565b604080516001600160a01b039092168252519081900360200190f35b61018b600480360360208110156100fd57600080fd5b810190602081018135600160201b81111561011757600080fd5b82018360208201111561012957600080fd5b803590602001918460018302840111600160201b8311171561014a57600080fd5b91908080601f016020809104026020016040519081016040528093929190818152602001838380828437600092019190915250929550610591945050505050565b60408051918252519081900360200190f35b6102fa60048036036101208110156101b457600080fd5b6001600160a01b038235811692602081013590911691810190606081016040820135600160201b8111156101e757600080fd5b8201836020820111156101f957600080fd5b803590602001918460018302840111600160201b8311171561021a57600080fd5b91908080601f016020809104026020016040519081016040528093929190818152602001838380828437600092019190915250929584359560208601359560408101359550606081013594509192509060a081019060800135600160201b81111561028457600080fd5b82018360208201111561029657600080fd5b803590602001918460018302840111600160201b831117156102b757600080fd5b91908080601f01602080910402602001604051908101604052809392919081815260200183838082843760009201919091525092955050913592506105f9915050565b6040518083815260200180602001828103825283818151815260200191508051906020019080838360005b8381101561033d578181015183820152602001610325565b50505050905090810190601f16801561036a5780820380516001836020036101000a031916815260200191505b50935050505060405180910390f35b6103816106e8565b6040805160208082528351818301528351919283929083019185019080838360005b838110156103bb5781810151838201526020016103a3565b50505050905090810190601f1680156103e85780820380516001836020036101000a031916815260200191505b509250505060405180910390f35b6100956004803603608081101561040c57600080fd5b810190602081018135600160201b81111561042657600080fd5b82018360208201111561043857600080fd5b803590602001918460018302840111600160201b8311171561045957600080fd5b91908080601f01602080910402602001604051908101604052809392919081815260200183838082843760009201919091525092955050505080351515915060208101359060400135610707565b6100cb610770565b7fde4813f7525e49908b98ef6c9c80c5bc8c7d0842981a49420eb45ef36a60e0c06104d8610770565b6001600160a01b03166370a082316104ee61077f565b6040518263ffffffff1660e01b815260040180826001600160a01b03166001600160a01b0316815260200191505060206040518083038186803b15801561053457600080fd5b505afa158015610548573d6000803e3d6000fd5b505050506040513d602081101561055e57600080fd5b505160408051918252519081900360200190a1565b61057d82826107a8565b5050565b6000546001600160a01b03165b90565b600061059b610581565b6001600160a01b0316336001600160a01b0316146105ea5760405162461bcd60e51b8152600401808060200182810382526024815260200180610d096024913960400191505060405180910390fd5b6105f382610819565b92915050565b600154604080516370a0823160e01b81526001600160a01b038b81166004830152915160009360609386939116916370a0823191602480820192602092909190829003018186803b15801561064d57600080fd5b505afa158015610661573d6000803e3d6000fd5b505050506040513d602081101561067757600080fd5b50511015610692576106896000610866565b915091506106da565b604080516001600160a01b038c166020820152808201859052606081018a905260808082018a90528251808303909101815260a09091019091526106d59061087e565b915091505b995099975050505050505050565b6040805180820190915260058152640312e302e360dc1b602082015290565b61070f610581565b6001600160a01b0316336001600160a01b03161461075e5760405162461bcd60e51b8152600401808060200182810382526024815260200180610d096024913960400191505060405180910390fd5b61076a84848484610883565b50505050565b6001546001600160a01b031690565b600080546001600160a01b0316331461079957503361058e565b6107a1610928565b905061058e565b600154604080516340c10f1960e01b81526001600160a01b03858116600483015260248201859052915191909216916340c10f1991604480830192600092919082900301818387803b1580156107fd57600080fd5b505af1158015610811573d6000803e3d6000fd5b505050505050565b600080600083806020019051604081101561083357600080fd5b508051602090910151600154919350915061085f906001600160a01b031683308463ffffffff61097516565b5050919050565b604080516020810190915260008152600b9190910191565b600091565b60008060008087806020019051608081101561089e57600080fd5b508051602082015160408301516060909301519196509450909250905060006108dc6108d5620186a061271063ffffffff6109cf16565b8385610a18565b90506108ee878263ffffffff6109cf16565b965061091d85610904868a63ffffffff6109cf16565b6001546001600160a01b0316919063ffffffff610a2616565b505050505050505050565b600060606000368080601f0160208091040260200160405190810160405280939291908181526020018383808284376000920191909152505050503601516001600160a01b031692915050565b604080516001600160a01b0380861660248301528416604482015260648082018490528251808303909101815260849091019091526020810180516001600160e01b03166323b872dd60e01b17905261076a908590610a7d565b6000610a1183836040518060400160405280601e81526020017f536166654d6174683a207375627472616374696f6e206f766572666c6f770000815250610c35565b9392505050565b606490810191909202020490565b604080516001600160a01b038416602482015260448082018490528251808303909101815260649091019091526020810180516001600160e01b031663a9059cbb60e01b179052610a78908490610a7d565b505050565b610a8f826001600160a01b0316610ccc565b610ae0576040805162461bcd60e51b815260206004820152601f60248201527f5361666545524332303a2063616c6c20746f206e6f6e2d636f6e747261637400604482015290519081900360640190fd5b60006060836001600160a01b0316836040518082805190602001908083835b60208310610b1e5780518252601f199092019160209182019101610aff565b6001836020036101000a0380198251168184511680821785525050505050509050019150506000604051808303816000865af19150503d8060008114610b80576040519150601f19603f3d011682016040523d82523d6000602084013e610b85565b606091505b509150915081610bdc576040805162461bcd60e51b815260206004820181905260248201527f5361666545524332303a206c6f772d6c6576656c2063616c6c206661696c6564604482015290519081900360640190fd5b80511561076a57808060200190516020811015610bf857600080fd5b505161076a5760405162461bcd60e51b815260040180806020018281038252602a815260200180610d2d602a913960400191505060405180910390fd5b60008184841115610cc45760405162461bcd60e51b81526004018080602001828103825283818151815260200191508051906020019080838360005b83811015610c89578181015183820152602001610c71565b50505050905090810190601f168015610cb65780820380516001836020036101000a031916815260200191505b509250505060405180910390fd5b505050900390565b6000813f7fc5d2460186f7233c927e7db2dcc703c0e500b653ca82273b7bfad8045d85a470818114801590610d0057508115155b94935050505056fe47534e526563697069656e743a2063616c6c6572206973206e6f742052656c61794875625361666545524332303a204552433230206f7065726174696f6e20646964206e6f742073756363656564a2646970667358221220ec40554caa0a314789726b7bd2a4f6525aa7458efd56a79a0b80a769ad87d7ca64736f6c6343000606003360806040523480156200001157600080fd5b506040516200122438038062001224833981810160405260408110156200003757600080fd5b81019080805160405193929190846401000000008211156200005857600080fd5b9083019060208201858111156200006e57600080fd5b82516401000000008111828201881017156200008957600080fd5b82525081516020918201929091019080838360005b83811015620000b85781810151838201526020016200009e565b50505050905090810190601f168015620000e65780820380516001836020036101000a031916815260200191505b50604052602001805160405193929190846401000000008211156200010a57600080fd5b9083019060208201858111156200012057600080fd5b82516401000000008111828201881017156200013b57600080fd5b82525081516020918201929091019080838360005b838110156200016a57818101518382015260200162000150565b50505050905090810190601f168015620001985780820380516001836020036101000a031916815260200191505b50604052505082518391508290620001b890600390602085019062000256565b508051620001ce90600490602084019062000256565b50506005805460ff19166012179055506000620001f36001600160e01b036200025116565b60058054610100600160a81b0319166101006001600160a01b03841690810291909117909155604051919250906000907f8be0079c531659141344cd1fd0a4f28419497f9722a3daafe3b4186f6b6457e0908290a3505050620002f8565b335b90565b828054600181600116156101000203166002900490600052602060002090601f016020900481019282601f106200029957805160ff1916838001178555620002c9565b82800160010185558215620002c9579182015b82811115620002c9578251825591602001919060010190620002ac565b50620002d7929150620002db565b5090565b6200025391905b80821115620002d75760008155600101620002e2565b610f1c80620003086000396000f3fe608060405234801561001057600080fd5b50600436106100f55760003560e01c806370a0823111610097578063a457c2d711610066578063a457c2d7146102d9578063a9059cbb14610305578063dd62ed3e14610331578063f2fde38b1461035f576100f5565b806370a082311461027f578063715018a6146102a55780638da5cb5b146102ad57806395d89b41146102d1576100f5565b806323b872dd116100d357806323b872dd146101d1578063313ce56714610207578063395093511461022557806340c10f1914610251576100f5565b806306fdde03146100fa578063095ea7b31461017757806318160ddd146101b7575b600080fd5b610102610385565b6040805160208082528351818301528351919283929083019185019080838360005b8381101561013c578181015183820152602001610124565b50505050905090810190601f1680156101695780820380516001836020036101000a031916815260200191505b509250505060405180910390f35b6101a36004803603604081101561018d57600080fd5b506001600160a01b03813516906020013561041b565b604080519115158252519081900360200190f35b6101bf610439565b60408051918252519081900360200190f35b6101a3600480360360608110156101e757600080fd5b506001600160a01b0381358116916020810135909116906040013561043f565b61020f61048a565b6040805160ff9092168252519081900360200190f35b6101a36004803603604081101561023b57600080fd5b506001600160a01b038135169060200135610493565b61027d6004803603604081101561026757600080fd5b506001600160a01b0381351690602001356104ec565b005b6101bf6004803603602081101561029557600080fd5b50356001600160a01b0316610569565b61027d610584565b6102b5610643565b604080516001600160a01b039092168252519081900360200190f35b610102610657565b6101a3600480360360408110156102ef57600080fd5b506001600160a01b0381351690602001356106b8565b6101a36004803603604081101561031b57600080fd5b506001600160a01b038135169060200135610726565b6101bf6004803603604081101561034757600080fd5b506001600160a01b038135811691602001351661073a565b61027d6004803603602081101561037557600080fd5b50356001600160a01b0316610777565b60038054604080516020601f60026000196101006001881615020190951694909404938401819004810282018101909252828152606093909290918301828280156104115780601f106103e657610100808354040283529160200191610411565b820191906000526020600020905b8154815290600101906020018083116103f457829003601f168201915b5050505050905090565b600061042f610428610892565b8484610896565b5060015b92915050565b60025490565b6000610449610643565b6001600160a01b0316836001600160a01b031614156104755761046d8484846108cc565b506001610483565b610480848484610a33565b90505b9392505050565b60055460ff1690565b600061042f6104a0610892565b846104e785600160006104b1610892565b6001600160a01b03908116825260208083019390935260409182016000908120918c16815292529020549063ffffffff610abb16565b610896565b6104f4610892565b60055461010090046001600160a01b0390811691161461055b576040805162461bcd60e51b815260206004820181905260248201527f4f776e61626c653a2063616c6c6572206973206e6f7420746865206f776e6572604482015290519081900360640190fd5b6105658282610b15565b5050565b6001600160a01b031660009081526020819052604090205490565b61058c610892565b60055461010090046001600160a01b039081169116146105f3576040805162461bcd60e51b815260206004820181905260248201527f4f776e61626c653a2063616c6c6572206973206e6f7420746865206f776e6572604482015290519081900360640190fd5b60055460405160009161010090046001600160a01b0316907f8be0079c531659141344cd1fd0a4f28419497f9722a3daafe3b4186f6b6457e0908390a360058054610100600160a81b0319169055565b60055461010090046001600160a01b031690565b60048054604080516020601f60026000196101006001881615020190951694909404938401819004810282018101909252828152606093909290918301828280156104115780601f106103e657610100808354040283529160200191610411565b600061042f6106c5610892565b846104e785604051806060016040528060258152602001610ec260259139600160006106ef610892565b6001600160a01b03908116825260208083019390935260409182016000908120918d1681529252902054919063ffffffff610c1116565b600061042f610733610892565b84846108cc565b6000610744610643565b6001600160a01b0316826001600160a01b031614156107665750600019610433565b6107708383610ca8565b9050610433565b61077f610892565b60055461010090046001600160a01b039081169116146107e6576040805162461bcd60e51b815260206004820181905260248201527f4f776e61626c653a2063616c6c6572206973206e6f7420746865206f776e6572604482015290519081900360640190fd5b6001600160a01b03811661082b5760405162461bcd60e51b8152600401808060200182810382526026815260200180610de36026913960400191505060405180910390fd5b6005546040516001600160a01b0380841692610100900416907f8be0079c531659141344cd1fd0a4f28419497f9722a3daafe3b4186f6b6457e090600090a3600580546001600160a01b0390921661010002610100600160a81b0319909216919091179055565b3390565b61089e610643565b6001600160a01b0316826001600160a01b031614156108bc576108c7565b6108c7838383610cd3565b505050565b6001600160a01b0383166109115760405162461bcd60e51b8152600401808060200182810382526025815260200180610e796025913960400191505060405180910390fd5b6001600160a01b0382166109565760405162461bcd60e51b8152600401808060200182810382526023815260200180610dc06023913960400191505060405180910390fd5b6109618383836108c7565b6109a481604051806060016040528060268152602001610e2b602691396001600160a01b038616600090815260208190526040902054919063ffffffff610c1116565b6001600160a01b0380851660009081526020819052604080822093909355908416815220546109d9908263ffffffff610abb16565b6001600160a01b038084166000818152602081815260409182902094909455805185815290519193928716927fddf252ad1be2c89b69c2b068fc378daa952ba7f163c4a11628f55a4df523b3ef92918290030190a3505050565b6000610a408484846108cc565b610ab184610a4c610892565b6104e785604051806060016040528060288152602001610e51602891396001600160a01b038a16600090815260016020526040812090610a8a610892565b6001600160a01b03168152602081019190915260400160002054919063ffffffff610c1116565b5060019392505050565b600082820183811015610483576040805162461bcd60e51b815260206004820152601b60248201527f536166654d6174683a206164646974696f6e206f766572666c6f770000000000604482015290519081900360640190fd5b6001600160a01b038216610b70576040805162461bcd60e51b815260206004820152601f60248201527f45524332303a206d696e7420746f20746865207a65726f206164647265737300604482015290519081900360640190fd5b610b7c600083836108c7565b600254610b8f908263ffffffff610abb16565b6002556001600160a01b038216600090815260208190526040902054610bbb908263ffffffff610abb16565b6001600160a01b0383166000818152602081815260408083209490945583518581529351929391927fddf252ad1be2c89b69c2b068fc378daa952ba7f163c4a11628f55a4df523b3ef9281900390910190a35050565b60008184841115610ca05760405162461bcd60e51b81526004018080602001828103825283818151815260200191508051906020019080838360005b83811015610c65578181015183820152602001610c4d565b50505050905090810190601f168015610c925780820380516001836020036101000a031916815260200191505b509250505060405180910390fd5b505050900390565b6001600160a01b03918216600090815260016020908152604080832093909416825291909152205490565b6001600160a01b038316610d185760405162461bcd60e51b8152600401808060200182810382526024815260200180610e9e6024913960400191505060405180910390fd5b6001600160a01b038216610d5d5760405162461bcd60e51b8152600401808060200182810382526022815260200180610e096022913960400191505060405180910390fd5b6001600160a01b03808416600081815260016020908152604080832094871680845294825291829020859055815185815291517f8c5be1e5ebec7d5bd14f71427d1e84f3dd0314c0f7b2291e5b200ac8c7c3b9259281900390910190a350505056fe45524332303a207472616e7366657220746f20746865207a65726f20616464726573734f776e61626c653a206e6577206f776e657220697320746865207a65726f206164647265737345524332303a20617070726f766520746f20746865207a65726f206164647265737345524332303a207472616e7366657220616d6f756e7420657863656564732062616c616e636545524332303a207472616e7366657220616d6f756e74206578636565647320616c6c6f77616e636545524332303a207472616e736665722066726f6d20746865207a65726f206164647265737345524332303a20617070726f76652066726f6d20746865207a65726f206164647265737345524332303a2064656372656173656420616c6c6f77616e63652062656c6f77207a65726fa2646970667358221220aa1cc6fee147bb6c3505bd980c55459fd6748a64a8e1dbc2411781df52d274bb64736f6c63430006060033",
  "linkReferences": {},
  "deployedLinkReferences": {}
}