{
  "_format": "hh-sol-artifact-1",
  "contractName": "ERC165CheckerMock",
  "sourceName": "contracts/oz/mocks/ERC165CheckerMock.sol",
  "abi": [
    {
      "inputs": [
        {
          "internalType": "address",
          "name": "account",
          "type": "address"
        },
        {
          "internalType": "bytes4[]",
          "name": "interfaceIds",
          "type": "bytes4[]"
        }
      ],
      "name": "supportsAllInterfaces",
      "outputs": [
        {
          "internalType": "bool",
          "name": "",
          "type": "bool"
        }
      ],
      "stateMutability": "view",
      "type": "function"
    },
    {
      "inputs": [
        {
          "internalType": "address",
          "name": "account",
          "type": "address"
        }
      ],
      "name": "supportsERC165",
      "outputs": [
        {
          "internalType": "bool",
          "name": "",
          "type": "bool"
        }
      ],
      "stateMutability": "view",
      "type": "function"
    },
    {
      "inputs": [
        {
          "internalType": "address",
          "name": "account",
          "type": "address"
        },
        {
          "internalType": "bytes4",
          "name": "interfaceId",
          "type": "bytes4"
        }
      ],
      "name": "supportsInterface",
      "outputs": [
        {
          "internalType": "bool",
          "name": "",
          "type": "bool"
        }
      ],
      "stateMutability": "view",
      "type": "function"
    }
  ],
  "bytecode": "0x608060405234801561001057600080fd5b506103f7806100206000396000f3fe608060405234801561001057600080fd5b50600436106100415760003560e01c80634b9dd90414610046578063c398a9251461010d578063d905700714610133575b600080fd5b6100f96004803603604081101561005c57600080fd5b6001600160a01b03823516919081019060408101602082013564010000000081111561008757600080fd5b82018360208201111561009957600080fd5b803590602001918460208302840111640100000000831117156100bb57600080fd5b919080806020026020016040519081016040528093929190818152602001838360200280828437600092019190915250929550610169945050505050565b604080519115158252519081900360200190f35b6100f96004803603602081101561012357600080fd5b50356001600160a01b031661018d565b6100f96004803603604081101561014957600080fd5b5080356001600160a01b031690602001356001600160e01b0319166101a1565b60006101846001600160a01b0384168363ffffffff6101bc16565b90505b92915050565b6000610187826001600160a01b031661021c565b60006101846001600160a01b0384168363ffffffff61024f16565b60006101c78361021c565b6101d357506000610187565b60005b8251811015610212576101fc848483815181106101ef57fe5b6020026020010151610267565b61020a576000915050610187565b6001016101d6565b5060019392505050565b600061022f826301ffc9a760e01b610267565b80156101875750610248826001600160e01b0319610267565b1592915050565b600061025a8361021c565b8015610184575061018483835b6000806000610276858561028d565b915091508180156102845750805b95945050505050565b604080516001600160e01b0319831660248083019190915282518083039091018152604490910182526020810180516001600160e01b03166301ffc9a760e01b1781529151815160009384939284926060926001600160a01b038a169261753092879282918083835b602083106103155780518252601f1990920191602091820191016102f6565b6001836020036101000a0380198251168184511680821785525050505050509050019150506000604051808303818686fa925050503d8060008114610376576040519150601f19603f3d011682016040523d82523d6000602084013e61037b565b606091505b509150915060208151101561039957600080945094505050506103ba565b818180602001905160208110156103af57600080fd5b505190955093505050505b925092905056fea264697066735822122099ba0be1789a1fa96c17cb96a8c77dda80f4b0a65310ad5fa0c51220da4b36cc64736f6c63430006060033",
  "linkReferences": {},
  "deployedLinkReferences": {}
}