{
  "_format": "hh-sol-artifact-1",
  "contractName": "AddressImpl",
  "sourceName": "contracts/oz/mocks/AddressImpl.sol",
  "abi": [
    {
      "inputs": [
        {
          "internalType": "address",
          "name": "account",
          "type": "address"
        }
      ],
      "name": "isContract",
      "outputs": [
        {
          "internalType": "bool",
          "name": "",
          "type": "bool"
        }
      ],
      "stateMutability": "view",
      "type": "function"
    },
    {
      "inputs": [
        {
          "internalType": "address payable",
          "name": "receiver",
          "type": "address"
        },
        {
          "internalType": "uint256",
          "name": "amount",
          "type": "uint256"
        }
      ],
      "name": "sendValue",
      "outputs": [],
      "stateMutability": "nonpayable",
      "type": "function"
    },
    {
      "stateMutability": "payable",
      "type": "receive"
    }
  ],
  "bytecode": "0x608060405234801561001057600080fd5b50610270806100206000396000f3fe60806040526004361061002d5760003560e01c8063162790551461003957806324a084df1461008057610034565b3661003457005b600080fd5b34801561004557600080fd5b5061006c6004803603602081101561005c57600080fd5b50356001600160a01b03166100bb565b604080519115158252519081900360200190f35b34801561008c57600080fd5b506100b9600480360360408110156100a357600080fd5b506001600160a01b0381351690602001356100cc565b005b60006100c6826100da565b92915050565b6100d68282610116565b5050565b6000813f7fc5d2460186f7233c927e7db2dcc703c0e500b653ca82273b7bfad8045d85a47081811480159061010e57508115155b949350505050565b8047101561016b576040805162461bcd60e51b815260206004820152601d60248201527f416464726573733a20696e73756666696369656e742062616c616e6365000000604482015290519081900360640190fd5b6040516000906001600160a01b0384169083908381818185875af1925050503d80600081146101b6576040519150601f19603f3d011682016040523d82523d6000602084013e6101bb565b606091505b50509050806101fb5760405162461bcd60e51b815260040180806020018281038252603a815260200180610201603a913960400191505060405180910390fd5b50505056fe416464726573733a20756e61626c6520746f2073656e642076616c75652c20726563697069656e74206d61792068617665207265766572746564a2646970667358221220188030a01e86f2237a12d8c3f705bb6dc60ea0d9cd4fcfffa9b21f678e5ff56664736f6c63430006060033",
  "linkReferences": {},
  "deployedLinkReferences": {}
}