{
  "_format": "hh-sol-artifact-1",
  "contractName": "SafeERC20Wrapper",
  "sourceName": "contracts/oz/mocks/SafeERC20Helper.sol",
  "abi": [
    {
      "inputs": [
        {
          "internalType": "contract IERC20",
          "name": "token",
          "type": "address"
        }
      ],
      "stateMutability": "nonpayable",
      "type": "constructor"
    },
    {
      "inputs": [],
      "name": "allowance",
      "outputs": [
        {
          "internalType": "uint256",
          "name": "",
          "type": "uint256"
        }
      ],
      "stateMutability": "view",
      "type": "function"
    },
    {
      "inputs": [
        {
          "internalType": "uint256",
          "name": "amount",
          "type": "uint256"
        }
      ],
      "name": "approve",
      "outputs": [],
      "stateMutability": "nonpayable",
      "type": "function"
    },
    {
      "inputs": [
        {
          "internalType": "uint256",
          "name": "amount",
          "type": "uint256"
        }
      ],
      "name": "decreaseAllowance",
      "outputs": [],
      "stateMutability": "nonpayable",
      "type": "function"
    },
    {
      "inputs": [
        {
          "internalType": "uint256",
          "name": "amount",
          "type": "uint256"
        }
      ],
      "name": "increaseAllowance",
      "outputs": [],
      "stateMutability": "nonpayable",
      "type": "function"
    },
    {
      "inputs": [
        {
          "internalType": "uint256",
          "name": "allowance_",
          "type": "uint256"
        }
      ],
      "name": "setAllowance",
      "outputs": [],
      "stateMutability": "nonpayable",
      "type": "function"
    },
    {
      "inputs": [],
      "name": "transfer",
      "outputs": [],
      "stateMutability": "nonpayable",
      "type": "function"
    },
    {
      "inputs": [],
      "name": "transferFrom",
      "outputs": [],
      "stateMutability": "nonpayable",
      "type": "function"
    }
  ],
  "bytecode": "0x608060405234801561001057600080fd5b50604051610a18380380610a188339818101604052602081101561003357600080fd5b5051600080546001600160a01b039092166001600160a01b03199092169190911790556109b3806100656000396000f3fe608060405234801561001057600080fd5b506004361061007d5760003560e01c8063811c34d31161005b578063811c34d3146100db5780638a4068dd146100e3578063b759f954146100eb578063de242ff4146101085761007d565b806310bad4cf1461008257806311e330b2146100a15780633ba93f26146100be575b600080fd5b61009f6004803603602081101561009857600080fd5b5035610122565b005b61009f600480360360208110156100b757600080fd5b5035610145565b61009f600480360360208110156100d457600080fd5b5035610165565b61009f6101c8565b61009f6101eb565b61009f6004803603602081101561010157600080fd5b503561020b565b61011061022b565b60408051918252519081900360200190f35b60008054610142916001600160a01b03909116908363ffffffff6102b016565b50565b60008054610142916001600160a01b03909116908363ffffffff6103b316565b6000805460408051631dd49f9360e11b81526004810185905290516001600160a01b0390921692633ba93f269260248084019382900301818387803b1580156101ad57600080fd5b505af11580156101c1573d6000803e3d6000fd5b5050505050565b600080546101e9916001600160a01b0390911690808063ffffffff61044416565b565b600080546101e9916001600160a01b03909116908063ffffffff61049e16565b60008054610142916001600160a01b03909116908363ffffffff6104f516565b6000805460408051636eb1769f60e11b8152600481018490526024810184905290516001600160a01b039092169163dd62ed3e91604480820192602092909190829003018186803b15801561027f57600080fd5b505afa158015610293573d6000803e3d6000fd5b505050506040513d60208110156102a957600080fd5b5051905090565b6000610358826040518060600160405280602981526020016108f56029913960408051636eb1769f60e11b81523060048201526001600160a01b03888116602483015291519189169163dd62ed3e91604480820192602092909190829003018186803b15801561031f57600080fd5b505afa158015610333573d6000803e3d6000fd5b505050506040513d602081101561034957600080fd5b5051919063ffffffff61060816565b604080516001600160a01b038616602482015260448082018490528251808303909101815260649091019091526020810180516001600160e01b031663095ea7b360e01b1790529091506103ad90859061069f565b50505050565b60408051636eb1769f60e11b81523060048201526001600160a01b03848116602483015291516000926103589285929188169163dd62ed3e91604480820192602092909190829003018186803b15801561040c57600080fd5b505afa158015610420573d6000803e3d6000fd5b505050506040513d602081101561043657600080fd5b50519063ffffffff61085716565b604080516001600160a01b0380861660248301528416604482015260648082018490528251808303909101815260849091019091526020810180516001600160e01b03166323b872dd60e01b1790526103ad90859061069f565b604080516001600160a01b038416602482015260448082018490528251808303909101815260649091019091526020810180516001600160e01b031663a9059cbb60e01b1790526104f090849061069f565b505050565b80158061057b575060408051636eb1769f60e11b81523060048201526001600160a01b03848116602483015291519185169163dd62ed3e91604480820192602092909190829003018186803b15801561054d57600080fd5b505afa158015610561573d6000803e3d6000fd5b505050506040513d602081101561057757600080fd5b5051155b6105b65760405162461bcd60e51b81526004018080602001828103825260368152602001806109486036913960400191505060405180910390fd5b604080516001600160a01b038416602482015260448082018490528251808303909101815260649091019091526020810180516001600160e01b031663095ea7b360e01b1790526104f090849061069f565b600081848411156106975760405162461bcd60e51b81526004018080602001828103825283818151815260200191508051906020019080838360005b8381101561065c578181015183820152602001610644565b50505050905090810190601f1680156106895780820380516001836020036101000a031916815260200191505b509250505060405180910390fd5b505050900390565b6106b1826001600160a01b03166108b8565b610702576040805162461bcd60e51b815260206004820152601f60248201527f5361666545524332303a2063616c6c20746f206e6f6e2d636f6e747261637400604482015290519081900360640190fd5b60006060836001600160a01b0316836040518082805190602001908083835b602083106107405780518252601f199092019160209182019101610721565b6001836020036101000a0380198251168184511680821785525050505050509050019150506000604051808303816000865af19150503d80600081146107a2576040519150601f19603f3d011682016040523d82523d6000602084013e6107a7565b606091505b5091509150816107fe576040805162461bcd60e51b815260206004820181905260248201527f5361666545524332303a206c6f772d6c6576656c2063616c6c206661696c6564604482015290519081900360640190fd5b8051156103ad5780806020019051602081101561081a57600080fd5b50516103ad5760405162461bcd60e51b815260040180806020018281038252602a81526020018061091e602a913960400191505060405180910390fd5b6000828201838110156108b1576040805162461bcd60e51b815260206004820152601b60248201527f536166654d6174683a206164646974696f6e206f766572666c6f770000000000604482015290519081900360640190fd5b9392505050565b6000813f7fc5d2460186f7233c927e7db2dcc703c0e500b653ca82273b7bfad8045d85a4708181148015906108ec57508115155b94935050505056fe5361666545524332303a2064656372656173656420616c6c6f77616e63652062656c6f77207a65726f5361666545524332303a204552433230206f7065726174696f6e20646964206e6f7420737563636565645361666545524332303a20617070726f76652066726f6d206e6f6e2d7a65726f20746f206e6f6e2d7a65726f20616c6c6f77616e6365a2646970667358221220eb6b140d3ff720bd463752c78e384b3208de854fc231d8bc5780506d3c3ffe6664736f6c63430006060033",
  "linkReferences": {},
  "deployedLinkReferences": {}
}