{
  "_format": "hh-sol-artifact-1",
  "contractName": "ERC721Mock",
  "sourceName": "contracts/oz/mocks/ERC721Mock.sol",
  "abi": [
    {
      "inputs": [
        {
          "internalType": "string",
          "name": "name",
          "type": "string"
        },
        {
          "internalType": "string",
          "name": "symbol",
          "type": "string"
        }
      ],
      "stateMutability": "nonpayable",
      "type": "constructor"
    },
    {
      "anonymous": false,
      "inputs": [
        {
          "indexed": true,
          "internalType": "address",
          "name": "owner",
          "type": "address"
        },
        {
          "indexed": true,
          "internalType": "address",
          "name": "approved",
          "type": "address"
        },
        {
          "indexed": true,
          "internalType": "uint256",
          "name": "tokenId",
          "type": "uint256"
        }
      ],
      "name": "Approval",
      "type": "event"
    },
    {
      "anonymous": false,
      "inputs": [
        {
          "indexed": true,
          "internalType": "address",
          "name": "owner",
          "type": "address"
        },
        {
          "indexed": true,
          "internalType": "address",
          "name": "operator",
          "type": "address"
        },
        {
          "indexed": false,
          "internalType": "bool",
          "name": "approved",
          "type": "bool"
        }
      ],
      "name": "ApprovalForAll",
      "type": "event"
    },
    {
      "anonymous": false,
      "inputs": [
        {
          "indexed": true,
          "internalType": "address",
          "name": "from",
          "type": "address"
        },
        {
          "indexed": true,
          "internalType": "address",
          "name": "to",
          "type": "address"
        },
        {
          "indexed": true,
          "internalType": "uint256",
          "name": "tokenId",
          "type": "uint256"
        }
      ],
      "name": "Transfer",
      "type": "event"
    },
    {
      "inputs": [
        {
          "internalType": "address",
          "name": "to",
          "type": "address"
        },
        {
          "internalType": "uint256",
          "name": "tokenId",
          "type": "uint256"
        }
      ],
      "name": "approve",
      "outputs": [],
      "stateMutability": "nonpayable",
      "type": "function"
    },
    {
      "inputs": [
        {
          "internalType": "address",
          "name": "owner",
          "type": "address"
        }
      ],
      "name": "balanceOf",
      "outputs": [
        {
          "internalType": "uint256",
          "name": "",
          "type": "uint256"
        }
      ],
      "stateMutability": "view",
      "type": "function"
    },
    {
      "inputs": [],
      "name": "baseURI",
      "outputs": [
        {
          "internalType": "string",
          "name": "",
          "type": "string"
        }
      ],
      "stateMutability": "view",
      "type": "function"
    },
    {
      "inputs": [
        {
          "internalType": "uint256",
          "name": "tokenId",
          "type": "uint256"
        }
      ],
      "name": "burn",
      "outputs": [],
      "stateMutability": "nonpayable",
      "type": "function"
    },
    {
      "inputs": [
        {
          "internalType": "uint256",
          "name": "tokenId",
          "type": "uint256"
        }
      ],
      "name": "exists",
      "outputs": [
        {
          "internalType": "bool",
          "name": "",
          "type": "bool"
        }
      ],
      "stateMutability": "view",
      "type": "function"
    },
    {
      "inputs": [
        {
          "internalType": "uint256",
          "name": "tokenId",
          "type": "uint256"
        }
      ],
      "name": "getApproved",
      "outputs": [
        {
          "internalType": "address",
          "name": "",
          "type": "address"
        }
      ],
      "stateMutability": "view",
      "type": "function"
    },
    {
      "inputs": [
        {
          "internalType": "address",
          "name": "owner",
          "type": "address"
        },
        {
          "internalType": "address",
          "name": "operator",
          "type": "address"
        }
      ],
      "name": "isApprovedForAll",
      "outputs": [
        {
          "internalType": "bool",
          "name": "",
          "type": "bool"
        }
      ],
      "stateMutability": "view",
      "type": "function"
    },
    {
      "inputs": [
        {
          "internalType": "address",
          "name": "to",
          "type": "address"
        },
        {
          "internalType": "uint256",
          "name": "tokenId",
          "type": "uint256"
        }
      ],
      "name": "mint",
      "outputs": [],
      "stateMutability": "nonpayable",
      "type": "function"
    },
    {
      "inputs": [],
      "name": "name",
      "outputs": [
        {
          "internalType": "string",
          "name": "",
          "type": "string"
        }
      ],
      "stateMutability": "view",
      "type": "function"
    },
    {
      "inputs": [
        {
          "internalType": "uint256",
          "name": "tokenId",
          "type": "uint256"
        }
      ],
      "name": "ownerOf",
      "outputs": [
        {
          "internalType": "address",
          "name": "",
          "type": "address"
        }
      ],
      "stateMutability": "view",
      "type": "function"
    },
    {
      "inputs": [
        {
          "internalType": "address",
          "name": "to",
          "type": "address"
        },
        {
          "internalType": "uint256",
          "name": "tokenId",
          "type": "uint256"
        },
        {
          "internalType": "bytes",
          "name": "_data",
          "type": "bytes"
        }
      ],
      "name": "safeMint",
      "outputs": [],
      "stateMutability": "nonpayable",
      "type": "function"
    },
    {
      "inputs": [
        {
          "internalType": "address",
          "name": "to",
          "type": "address"
        },
        {
          "internalType": "uint256",
          "name": "tokenId",
          "type": "uint256"
        }
      ],
      "name": "safeMint",
      "outputs": [],
      "stateMutability": "nonpayable",
      "type": "function"
    },
    {
      "inputs": [
        {
          "internalType": "address",
          "name": "from",
          "type": "address"
        },
        {
          "internalType": "address",
          "name": "to",
          "type": "address"
        },
        {
          "internalType": "uint256",
          "name": "tokenId",
          "type": "uint256"
        }
      ],
      "name": "safeTransferFrom",
      "outputs": [],
      "stateMutability": "nonpayable",
      "type": "function"
    },
    {
      "inputs": [
        {
          "internalType": "address",
          "name": "from",
          "type": "address"
        },
        {
          "internalType": "address",
          "name": "to",
          "type": "address"
        },
        {
          "internalType": "uint256",
          "name": "tokenId",
          "type": "uint256"
        },
        {
          "internalType": "bytes",
          "name": "_data",
          "type": "bytes"
        }
      ],
      "name": "safeTransferFrom",
      "outputs": [],
      "stateMutability": "nonpayable",
      "type": "function"
    },
    {
      "inputs": [
        {
          "internalType": "address",
          "name": "operator",
          "type": "address"
        },
        {
          "internalType": "bool",
          "name": "approved",
          "type": "bool"
        }
      ],
      "name": "setApprovalForAll",
      "outputs": [],
      "stateMutability": "nonpayable",
      "type": "function"
    },
    {
      "inputs": [
        {
          "internalType": "string",
          "name": "baseURI",
          "type": "string"
        }
      ],
      "name": "setBaseURI",
      "outputs": [],
      "stateMutability": "nonpayable",
      "type": "function"
    },
    {
      "inputs": [
        {
          "internalType": "uint256",
          "name": "tokenId",
          "type": "uint256"
        },
        {
          "internalType": "string",
          "name": "uri",
          "type": "string"
        }
      ],
      "name": "setTokenURI",
      "outputs": [],
      "stateMutability": "nonpayable",
      "type": "function"
    },
    {
      "inputs": [
        {
          "internalType": "bytes4",
          "name": "interfaceId",
          "type": "bytes4"
        }
      ],
      "name": "supportsInterface",
      "outputs": [
        {
          "internalType": "bool",
          "name": "",
          "type": "bool"
        }
      ],
      "stateMutability": "view",
      "type": "function"
    },
    {
      "inputs": [],
      "name": "symbol",
      "outputs": [
        {
          "internalType": "string",
          "name": "",
          "type": "string"
        }
      ],
      "stateMutability": "view",
      "type": "function"
    },
    {
      "inputs": [
        {
          "internalType": "uint256",
          "name": "index",
          "type": "uint256"
        }
      ],
      "name": "tokenByIndex",
      "outputs": [
        {
          "internalType": "uint256",
          "name": "",
          "type": "uint256"
        }
      ],
      "stateMutability": "view",
      "type": "function"
    },
    {
      "inputs": [
        {
          "internalType": "address",
          "name": "owner",
          "type": "address"
        },
        {
          "internalType": "uint256",
          "name": "index",
          "type": "uint256"
        }
      ],
      "name": "tokenOfOwnerByIndex",
      "outputs": [
        {
          "internalType": "uint256",
          "name": "",
          "type": "uint256"
        }
      ],
      "stateMutability": "view",
      "type": "function"
    },
    {
      "inputs": [
        {
          "internalType": "uint256",
          "name": "tokenId",
          "type": "uint256"
        }
      ],
      "name": "tokenURI",
      "outputs": [
        {
          "internalType": "string",
          "name": "",
          "type": "string"
        }
      ],
      "stateMutability": "view",
      "type": "function"
    },
    {
      "inputs": [],
      "name": "totalSupply",
      "outputs": [
        {
          "internalType": "uint256",
          "name": "",
          "type": "uint256"
        }
      ],
      "stateMutability": "view",
      "type": "function"
    },
    {
      "inputs": [
        {
          "internalType": "address",
          "name": "from",
          "type": "address"
        },
        {
          "internalType": "address",
          "name": "to",
          "type": "address"
        },
        {
          "internalType": "uint256",
          "name": "tokenId",
          "type": "uint256"
        }
      ],
      "name": "transferFrom",
      "outputs": [],
      "stateMutability": "nonpayable",
      "type": "function"
    }
  ],
  "bytecode": "0x60806040523480156200001157600080fd5b50604051620024e6380380620024e6833981810160405260408110156200003757600080fd5b81019080805160405193929190846401000000008211156200005857600080fd5b9083019060208201858111156200006e57600080fd5b82516401000000008111828201881017156200008957600080fd5b82525081516020918201929091019080838360005b83811015620000b85781810151838201526020016200009e565b50505050905090810190601f168015620000e65780820380516001836020036101000a031916815260200191505b50604052602001805160405193929190846401000000008211156200010a57600080fd5b9083019060208201858111156200012057600080fd5b82516401000000008111828201881017156200013b57600080fd5b82525081516020918201929091019080838360005b838110156200016a57818101518382015260200162000150565b50505050905090810190601f168015620001985780820380516001836020036101000a031916815260200191505b5060405250839150829050620001be6301ffc9a760e01b6001600160e01b036200024516565b8151620001d3906006906020850190620002ca565b508051620001e9906007906020840190620002ca565b50620002056380ac58cd60e01b6001600160e01b036200024516565b62000220635b5e139f60e01b6001600160e01b036200024516565b6200023b63780e9d6360e01b6001600160e01b036200024516565b505050506200036f565b6001600160e01b03198082161415620002a5576040805162461bcd60e51b815260206004820152601c60248201527f4552433136353a20696e76616c696420696e7465726661636520696400000000604482015290519081900360640190fd5b6001600160e01b0319166000908152602081905260409020805460ff19166001179055565b828054600181600116156101000203166002900490600052602060002090601f016020900481019282601f106200030d57805160ff19168380011785556200033d565b828001600101855582156200033d579182015b828111156200033d57825182559160200191906001019062000320565b506200034b9291506200034f565b5090565b6200036c91905b808211156200034b576000815560010162000356565b90565b612167806200037f6000396000f3fe608060405234801561001057600080fd5b50600436106101585760003560e01c80634f6ccce7116100c357806395d89b411161007c57806395d89b4114610604578063a14481941461060c578063a22cb46514610638578063b88d4fde14610666578063c87b56dd1461072a578063e985e9c51461074757610158565b80634f6ccce71461043f57806355f804b31461045c5780636352211e146105005780636c0360eb1461051d57806370a08231146105255780638832e6e31461054b57610158565b806323b872dd1161011557806323b872dd146103415780632f745c591461037757806340c10f19146103a357806342842e0e146103cf57806342966c68146104055780634f558e791461042257610158565b806301ffc9a71461015d57806306fdde0314610198578063081812fc14610215578063095ea7b31461024e578063162094c41461027c57806318160ddd14610327575b600080fd5b6101846004803603602081101561017357600080fd5b50356001600160e01b031916610775565b604080519115158252519081900360200190f35b6101a0610798565b6040805160208082528351818301528351919283929083019185019080838360005b838110156101da5781810151838201526020016101c2565b50505050905090810190601f1680156102075780820380516001836020036101000a031916815260200191505b509250505060405180910390f35b6102326004803603602081101561022b57600080fd5b503561082f565b604080516001600160a01b039092168252519081900360200190f35b61027a6004803603604081101561026457600080fd5b506001600160a01b038135169060200135610891565b005b61027a6004803603604081101561029257600080fd5b81359190810190604081016020820135600160201b8111156102b357600080fd5b8201836020820111156102c557600080fd5b803590602001918460018302840111600160201b831117156102e657600080fd5b91908080601f01602080910402602001604051908101604052809392919081815260200183838082843760009201919091525092955061096c945050505050565b61032f61097a565b60408051918252519081900360200190f35b61027a6004803603606081101561035757600080fd5b506001600160a01b0381358116916020810135909116906040013561098b565b61032f6004803603604081101561038d57600080fd5b506001600160a01b0381351690602001356109e2565b61027a600480360360408110156103b957600080fd5b506001600160a01b038135169060200135610a13565b61027a600480360360608110156103e557600080fd5b506001600160a01b03813581169160208101359091169060400135610a1d565b61027a6004803603602081101561041b57600080fd5b5035610a38565b6101846004803603602081101561043857600080fd5b5035610a44565b61032f6004803603602081101561045557600080fd5b5035610a4f565b61027a6004803603602081101561047257600080fd5b810190602081018135600160201b81111561048c57600080fd5b82018360208201111561049e57600080fd5b803590602001918460018302840111600160201b831117156104bf57600080fd5b91908080601f016020809104026020016040519081016040528093929190818152602001838380828437600092019190915250929550610a6b945050505050565b6102326004803603602081101561051657600080fd5b5035610a74565b6101a0610aa2565b61032f6004803603602081101561053b57600080fd5b50356001600160a01b0316610b03565b61027a6004803603606081101561056157600080fd5b6001600160a01b0382351691602081013591810190606081016040820135600160201b81111561059057600080fd5b8201836020820111156105a257600080fd5b803590602001918460018302840111600160201b831117156105c357600080fd5b91908080601f016020809104026020016040519081016040528093929190818152602001838380828437600092019190915250929550610b6b945050505050565b6101a0610b76565b61027a6004803603604081101561062257600080fd5b506001600160a01b038135169060200135610bd7565b61027a6004803603604081101561064e57600080fd5b506001600160a01b0381351690602001351515610be1565b61027a6004803603608081101561067c57600080fd5b6001600160a01b03823581169260208101359091169160408201359190810190608081016060820135600160201b8111156106b657600080fd5b8201836020820111156106c857600080fd5b803590602001918460018302840111600160201b831117156106e957600080fd5b91908080601f016020809104026020016040519081016040528093929190818152602001838380828437600092019190915250929550610ce6945050505050565b6101a06004803603602081101561074057600080fd5b5035610d44565b6101846004803603604081101561075d57600080fd5b506001600160a01b0381358116916020013516610feb565b6001600160e01b0319811660009081526020819052604090205460ff165b919050565b60068054604080516020601f60026000196101006001881615020190951694909404938401819004810282018101909252828152606093909290918301828280156108245780601f106107f957610100808354040283529160200191610824565b820191906000526020600020905b81548152906001019060200180831161080757829003601f168201915b505050505090505b90565b600061083a82611019565b6108755760405162461bcd60e51b815260040180806020018281038252602c815260200180612030602c913960400191505060405180910390fd5b506000908152600460205260409020546001600160a01b031690565b600061089c82610a74565b9050806001600160a01b0316836001600160a01b031614156108ef5760405162461bcd60e51b81526004018080602001828103825260218152602001806120e06021913960400191505060405180910390fd5b806001600160a01b031661090161102c565b6001600160a01b0316148061092257506109228161091d61102c565b610feb565b61095d5760405162461bcd60e51b8152600401808060200182810382526038815260200180611f836038913960400191505060405180910390fd5b6109678383611030565b505050565b610976828261109e565b5050565b60006109866002611101565b905090565b61099c61099661102c565b8261110c565b6109d75760405162461bcd60e51b81526004018080602001828103825260318152602001806121016031913960400191505060405180910390fd5b6109678383836111b0565b6001600160a01b0382166000908152600160205260408120610a0a908363ffffffff61130e16565b90505b92915050565b610976828261131a565b61096783838360405180602001604052806000815250610ce6565b610a4181611454565b50565b6000610a0d82611019565b600080610a6360028463ffffffff61152d16565b509392505050565b610a4181611549565b6000610a0d82604051806060016040528060298152602001611fe5602991396002919063ffffffff61155c16565b60098054604080516020601f60026000196101006001881615020190951694909404938401819004810282018101909252828152606093909290918301828280156108245780601f106107f957610100808354040283529160200191610824565b60006001600160a01b038216610b4a5760405162461bcd60e51b815260040180806020018281038252602a815260200180611fbb602a913960400191505060405180910390fd5b6001600160a01b0382166000908152600160205260409020610a0d90611101565b610967838383611573565b60078054604080516020601f60026000196101006001881615020190951694909404938401819004810282018101909252828152606093909290918301828280156108245780601f106107f957610100808354040283529160200191610824565b61097682826115c5565b610be961102c565b6001600160a01b0316826001600160a01b03161415610c4f576040805162461bcd60e51b815260206004820152601960248201527f4552433732313a20617070726f766520746f2063616c6c657200000000000000604482015290519081900360640190fd5b8060056000610c5c61102c565b6001600160a01b03908116825260208083019390935260409182016000908120918716808252919093529120805460ff191692151592909217909155610ca061102c565b60408051841515815290516001600160a01b0392909216917f17307eab39ab6107e8899845ad3d59bd9653f200f220920489ca2b5937696c319181900360200190a35050565b610cf7610cf161102c565b8361110c565b610d325760405162461bcd60e51b81526004018080602001828103825260318152602001806121016031913960400191505060405180910390fd5b610d3e848484846115df565b50505050565b6060610d4f82611019565b610d8a5760405162461bcd60e51b815260040180806020018281038252602f8152602001806120b1602f913960400191505060405180910390fd5b60008281526008602090815260409182902080548351601f6002600019610100600186161502019093169290920491820184900484028101840190945280845260609392830182828015610e1f5780601f10610df457610100808354040283529160200191610e1f565b820191906000526020600020905b815481529060010190602001808311610e0257829003601f168201915b505060095493945050505060026000196101006001841615020190911604610e48579050610793565b805115610f19576009816040516020018083805460018160011615610100020316600290048015610eb05780601f10610e8e576101008083540402835291820191610eb0565b820191906000526020600020905b815481529060010190602001808311610e9c575b5050825160208401908083835b60208310610edc5780518252601f199092019160209182019101610ebd565b6001836020036101000a03801982511681845116808217855250505050505090500192505050604051602081830303815290604052915050610793565b6009610f2484611631565b6040516020018083805460018160011615610100020316600290048015610f825780601f10610f60576101008083540402835291820191610f82565b820191906000526020600020905b815481529060010190602001808311610f6e575b5050825160208401908083835b60208310610fae5780518252601f199092019160209182019101610f8f565b6001836020036101000a03801982511681845116808217855250505050505090500192505050604051602081830303815290604052915050919050565b6001600160a01b03918216600090815260056020908152604080832093909416825291909152205460ff1690565b6000610a0d60028363ffffffff61170c16565b3390565b600081815260046020526040902080546001600160a01b0319166001600160a01b038416908117909155819061106582610a74565b6001600160a01b03167f8c5be1e5ebec7d5bd14f71427d1e84f3dd0314c0f7b2291e5b200ac8c7c3b92560405160405180910390a45050565b6110a782611019565b6110e25760405162461bcd60e51b815260040180806020018281038252602c81526020018061205c602c913960400191505060405180910390fd5b6000828152600860209081526040909120825161096792840190611e06565b6000610a0d82611718565b600061111782611019565b6111525760405162461bcd60e51b815260040180806020018281038252602c815260200180611f57602c913960400191505060405180910390fd5b600061115d83610a74565b9050806001600160a01b0316846001600160a01b031614806111985750836001600160a01b031661118d8461082f565b6001600160a01b0316145b806111a857506111a88185610feb565b949350505050565b826001600160a01b03166111c382610a74565b6001600160a01b0316146112085760405162461bcd60e51b81526004018080602001828103825260298152602001806120886029913960400191505060405180910390fd5b6001600160a01b03821661124d5760405162461bcd60e51b8152600401808060200182810382526024815260200180611f336024913960400191505060405180910390fd5b611258838383610967565b611263600082611030565b6001600160a01b038316600090815260016020526040902061128b908263ffffffff61171c16565b506001600160a01b03821660009081526001602052604090206112b4908263ffffffff61172816565b506112c76002828463ffffffff61173416565b5080826001600160a01b0316846001600160a01b03167fddf252ad1be2c89b69c2b068fc378daa952ba7f163c4a11628f55a4df523b3ef60405160405180910390a4505050565b6000610a0a838361174a565b6001600160a01b038216611375576040805162461bcd60e51b815260206004820181905260248201527f4552433732313a206d696e7420746f20746865207a65726f2061646472657373604482015290519081900360640190fd5b61137e81611019565b156113d0576040805162461bcd60e51b815260206004820152601c60248201527f4552433732313a20746f6b656e20616c7265616479206d696e74656400000000604482015290519081900360640190fd5b6113dc60008383610967565b6001600160a01b0382166000908152600160205260409020611404908263ffffffff61172816565b506114176002828463ffffffff61173416565b5060405181906001600160a01b038416906000907fddf252ad1be2c89b69c2b068fc378daa952ba7f163c4a11628f55a4df523b3ef908290a45050565b600061145f82610a74565b905061146d81600084610967565b611478600083611030565b60008281526008602052604090205460026000196101006001841615020190911604156114b65760008281526008602052604081206114b691611e84565b6001600160a01b03811660009081526001602052604090206114de908363ffffffff61171c16565b506114f060028363ffffffff6117ae16565b5060405182906000906001600160a01b038416907fddf252ad1be2c89b69c2b068fc378daa952ba7f163c4a11628f55a4df523b3ef908390a45050565b600080808061153c86866117ba565b9097909650945050505050565b8051610976906009906020840190611e06565b6000611569848484611835565b90505b9392505050565b61157d838361131a565b61158a60008484846118ff565b6109675760405162461bcd60e51b8152600401808060200182810382526032815260200180611f016032913960400191505060405180910390fd5b610976828260405180602001604052806000815250611573565b6115ea8484846111b0565b6115f6848484846118ff565b610d3e5760405162461bcd60e51b8152600401808060200182810382526032815260200180611f016032913960400191505060405180910390fd5b60608161165657506040805180820190915260018152600360fc1b6020820152610793565b8160005b811561166e57600101600a8204915061165a565b60608167ffffffffffffffff8111801561168757600080fd5b506040519080825280601f01601f1916602001820160405280156116b2576020820181803683370190505b50859350905060001982015b831561170357600a840660300160f81b828280600190039350815181106116e157fe5b60200101906001600160f81b031916908160001a905350600a840493506116be565b50949350505050565b6000610a0a8383611b3a565b5490565b6000610a0a8383611b52565b6000610a0a8383611c18565b600061156984846001600160a01b038516611c62565b8154600090821061178c5760405162461bcd60e51b8152600401808060200182810382526022815260200180611edf6022913960400191505060405180910390fd5b82600001828154811061179b57fe5b9060005260206000200154905092915050565b6000610a0a8383611cf9565b8154600090819083106117fe5760405162461bcd60e51b815260040180806020018281038252602281526020018061200e6022913960400191505060405180910390fd5b600084600001848154811061180f57fe5b906000526020600020906002020190508060000154816001015492509250509250929050565b600082815260018401602052604081205482816118d05760405162461bcd60e51b81526004018080602001828103825283818151815260200191508051906020019080838360005b8381101561189557818101518382015260200161187d565b50505050905090810190601f1680156118c25780820380516001836020036101000a031916815260200191505b509250505060405180910390fd5b508460000160018203815481106118e357fe5b9060005260206000209060020201600101549150509392505050565b6000611913846001600160a01b0316611dcd565b61191f575060016111a8565b600060606001600160a01b038616630a85bd0160e11b61193d61102c565b89888860405160240180856001600160a01b03166001600160a01b03168152602001846001600160a01b03166001600160a01b0316815260200183815260200180602001828103825283818151815260200191508051906020019080838360005b838110156119b657818101518382015260200161199e565b50505050905090810190601f1680156119e35780820380516001836020036101000a031916815260200191505b5060408051601f198184030181529181526020820180516001600160e01b03166001600160e01b0319909a16999099178952518151919890975087965094509250829150849050835b60208310611a4b5780518252601f199092019160209182019101611a2c565b6001836020036101000a0380198251168184511680821785525050505050509050019150506000604051808303816000865af19150503d8060008114611aad576040519150601f19603f3d011682016040523d82523d6000602084013e611ab2565b606091505b509150915081611b0357805115611acc5780518082602001fd5b60405162461bcd60e51b8152600401808060200182810382526032815260200180611f016032913960400191505060405180910390fd5b6000818060200190516020811015611b1a57600080fd5b50516001600160e01b031916630a85bd0160e11b1493506111a892505050565b60009081526001919091016020526040902054151590565b60008181526001830160205260408120548015611c0e5783546000198083019190810190600090879083908110611b8557fe5b9060005260206000200154905080876000018481548110611ba257fe5b600091825260208083209091019290925582815260018981019092526040902090840190558654879080611bd257fe5b60019003818190600052602060002001600090559055866001016000878152602001908152602001600020600090556001945050505050610a0d565b6000915050610a0d565b6000611c248383611b3a565b611c5a57508154600181810184556000848152602080822090930184905584548482528286019093526040902091909155610a0d565b506000610a0d565b600082815260018401602052604081205480611cc757505060408051808201825283815260208082018481528654600181810189556000898152848120955160029093029095019182559151908201558654868452818801909252929091205561156c565b82856000016001830381548110611cda57fe5b906000526020600020906002020160010181905550600091505061156c565b60008181526001830160205260408120548015611c0e5783546000198083019190810190600090879083908110611d2c57fe5b9060005260206000209060020201905080876000018481548110611d4c57fe5b600091825260208083208454600290930201918255600193840154918401919091558354825289830190526040902090840190558654879080611d8b57fe5b6000828152602080822060026000199094019384020182815560019081018390559290935588815289820190925260408220919091559450610a0d9350505050565b6000813f7fc5d2460186f7233c927e7db2dcc703c0e500b653ca82273b7bfad8045d85a4708181148015906111a8575050151592915050565b828054600181600116156101000203166002900490600052602060002090601f016020900481019282601f10611e4757805160ff1916838001178555611e74565b82800160010185558215611e74579182015b82811115611e74578251825591602001919060010190611e59565b50611e80929150611ec4565b5090565b50805460018160011615610100020316600290046000825580601f10611eaa5750610a41565b601f016020900490600052602060002090810190610a4191905b61082c91905b80821115611e805760008155600101611eca56fe456e756d657261626c655365743a20696e646578206f7574206f6620626f756e64734552433732313a207472616e7366657220746f206e6f6e20455243373231526563656976657220696d706c656d656e7465724552433732313a207472616e7366657220746f20746865207a65726f20616464726573734552433732313a206f70657261746f7220717565727920666f72206e6f6e6578697374656e7420746f6b656e4552433732313a20617070726f76652063616c6c6572206973206e6f74206f776e6572206e6f7220617070726f76656420666f7220616c6c4552433732313a2062616c616e636520717565727920666f7220746865207a65726f20616464726573734552433732313a206f776e657220717565727920666f72206e6f6e6578697374656e7420746f6b656e456e756d657261626c654d61703a20696e646578206f7574206f6620626f756e64734552433732313a20617070726f76656420717565727920666f72206e6f6e6578697374656e7420746f6b656e4552433732314d657461646174613a2055524920736574206f66206e6f6e6578697374656e7420746f6b656e4552433732313a207472616e73666572206f6620746f6b656e2074686174206973206e6f74206f776e4552433732314d657461646174613a2055524920717565727920666f72206e6f6e6578697374656e7420746f6b656e4552433732313a20617070726f76616c20746f2063757272656e74206f776e65724552433732313a207472616e736665722063616c6c6572206973206e6f74206f776e6572206e6f7220617070726f766564a264697066735822122017aa1fcda651669d9580385fde0a6461acc7509ff6fab90a2eaa851f656a241164736f6c63430006060033",
  "linkReferences": {},
  "deployedLinkReferences": {}
}