{
  "_format": "hh-sol-artifact-1",
  "contractName": "AccessControlMock",
  "sourceName": "contracts/oz/mocks/AccessControlMock.sol",
  "abi": [
    {
      "inputs": [],
      "stateMutability": "nonpayable",
      "type": "constructor"
    },
    {
      "anonymous": false,
      "inputs": [
        {
          "indexed": true,
          "internalType": "bytes32",
          "name": "role",
          "type": "bytes32"
        },
        {
          "indexed": true,
          "internalType": "address",
          "name": "account",
          "type": "address"
        },
        {
          "indexed": true,
          "internalType": "address",
          "name": "sender",
          "type": "address"
        }
      ],
      "name": "RoleGranted",
      "type": "event"
    },
    {
      "anonymous": false,
      "inputs": [
        {
          "indexed": true,
          "internalType": "bytes32",
          "name": "role",
          "type": "bytes32"
        },
        {
          "indexed": true,
          "internalType": "address",
          "name": "account",
          "type": "address"
        },
        {
          "indexed": true,
          "internalType": "address",
          "name": "sender",
          "type": "address"
        }
      ],
      "name": "RoleRevoked",
      "type": "event"
    },
    {
      "inputs": [],
      "name": "DEFAULT_ADMIN_ROLE",
      "outputs": [
        {
          "internalType": "bytes32",
          "name": "",
          "type": "bytes32"
        }
      ],
      "stateMutability": "view",
      "type": "function"
    },
    {
      "inputs": [
        {
          "internalType": "bytes32",
          "name": "role",
          "type": "bytes32"
        }
      ],
      "name": "getRoleAdmin",
      "outputs": [
        {
          "internalType": "bytes32",
          "name": "",
          "type": "bytes32"
        }
      ],
      "stateMutability": "view",
      "type": "function"
    },
    {
      "inputs": [
        {
          "internalType": "bytes32",
          "name": "role",
          "type": "bytes32"
        },
        {
          "internalType": "uint256",
          "name": "index",
          "type": "uint256"
        }
      ],
      "name": "getRoleMember",
      "outputs": [
        {
          "internalType": "address",
          "name": "",
          "type": "address"
        }
      ],
      "stateMutability": "view",
      "type": "function"
    },
    {
      "inputs": [
        {
          "internalType": "bytes32",
          "name": "role",
          "type": "bytes32"
        }
      ],
      "name": "getRoleMemberCount",
      "outputs": [
        {
          "internalType": "uint256",
          "name": "",
          "type": "uint256"
        }
      ],
      "stateMutability": "view",
      "type": "function"
    },
    {
      "inputs": [
        {
          "internalType": "bytes32",
          "name": "role",
          "type": "bytes32"
        },
        {
          "internalType": "address",
          "name": "account",
          "type": "address"
        }
      ],
      "name": "grantRole",
      "outputs": [],
      "stateMutability": "nonpayable",
      "type": "function"
    },
    {
      "inputs": [
        {
          "internalType": "bytes32",
          "name": "role",
          "type": "bytes32"
        },
        {
          "internalType": "address",
          "name": "account",
          "type": "address"
        }
      ],
      "name": "hasRole",
      "outputs": [
        {
          "internalType": "bool",
          "name": "",
          "type": "bool"
        }
      ],
      "stateMutability": "view",
      "type": "function"
    },
    {
      "inputs": [
        {
          "internalType": "bytes32",
          "name": "role",
          "type": "bytes32"
        },
        {
          "internalType": "address",
          "name": "account",
          "type": "address"
        }
      ],
      "name": "renounceRole",
      "outputs": [],
      "stateMutability": "nonpayable",
      "type": "function"
    },
    {
      "inputs": [
        {
          "internalType": "bytes32",
          "name": "role",
          "type": "bytes32"
        },
        {
          "internalType": "address",
          "name": "account",
          "type": "address"
        }
      ],
      "name": "revokeRole",
      "outputs": [],
      "stateMutability": "nonpayable",
      "type": "function"
    },
    {
      "inputs": [
        {
          "internalType": "bytes32",
          "name": "roleId",
          "type": "bytes32"
        },
        {
          "internalType": "bytes32",
          "name": "adminRoleId",
          "type": "bytes32"
        }
      ],
      "name": "setRoleAdmin",
      "outputs": [],
      "stateMutability": "nonpayable",
      "type": "function"
    }
  ],
  "bytecode": "0x608060405234801561001057600080fd5b5061003560006100276001600160e01b0361003a16565b6001600160e01b0361003e16565b610163565b3390565b61005182826001600160e01b0361005516565b5050565b6000828152602081815260409091206100779183906104dd6100d1821b17901c565b156100515761008d6001600160e01b0361003a16565b6001600160a01b0316816001600160a01b0316837f2f8788117e7eff1d82e926ec794901d17c78024a50270940304540a733656f0d60405160405180910390a45050565b60006100ef836001600160a01b0384166001600160e01b036100f816565b90505b92915050565b600061010d83836001600160e01b0361014b16565b610143575081546001818101845560008481526020808220909301849055845484825282860190935260409020919091556100f2565b5060006100f2565b60009081526001919091016020526040902054151590565b61077d806101726000396000f3fe608060405234801561001057600080fd5b50600436106100935760003560e01c80639010d07c116100665780639010d07c1461014457806391d1485414610183578063a217fddf146101c3578063ca15c873146101cb578063d547741f146101e857610093565b80631e4e009114610098578063248a9ca3146100bd5780632f2ff15d146100ec57806336568abe14610118575b600080fd5b6100bb600480360360408110156100ae57600080fd5b5080359060200135610214565b005b6100da600480360360208110156100d357600080fd5b5035610222565b60408051918252519081900360200190f35b6100bb6004803603604081101561010257600080fd5b50803590602001356001600160a01b0316610237565b6100bb6004803603604081101561012e57600080fd5b50803590602001356001600160a01b031661029f565b6101676004803603604081101561015a57600080fd5b5080359060200135610300565b604080516001600160a01b039092168252519081900360200190f35b6101af6004803603604081101561019957600080fd5b50803590602001356001600160a01b0316610327565b604080519115158252519081900360200190f35b6100da610345565b6100da600480360360208110156101e157600080fd5b503561034a565b6100bb600480360360408110156101fe57600080fd5b50803590602001356001600160a01b0316610361565b61021e82826103ba565b5050565b60009081526020819052604090206002015490565b60008281526020819052604090206002015461025a906102556103cf565b610327565b6102955760405162461bcd60e51b815260040180806020018281038252602f8152602001806106ba602f913960400191505060405180910390fd5b61021e82826103d3565b6102a76103cf565b6001600160a01b0316816001600160a01b0316146102f65760405162461bcd60e51b815260040180806020018281038252602f815260200180610719602f913960400191505060405180910390fd5b61021e8282610442565b600082815260208190526040812061031e908363ffffffff6104b116565b90505b92915050565b600082815260208190526040812061031e908363ffffffff6104bd16565b600081565b6000818152602081905260408120610321906104d2565b60008281526020819052604090206002015461037f906102556103cf565b6102f65760405162461bcd60e51b81526004018080602001828103825260308152602001806106e96030913960400191505060405180910390fd5b60009182526020829052604090912060020155565b3390565b60008281526020819052604090206103f1908263ffffffff6104dd16565b1561021e576103fe6103cf565b6001600160a01b0316816001600160a01b0316837f2f8788117e7eff1d82e926ec794901d17c78024a50270940304540a733656f0d60405160405180910390a45050565b6000828152602081905260409020610460908263ffffffff6104f216565b1561021e5761046d6103cf565b6001600160a01b0316816001600160a01b0316837ff6391f5c32d9c69d2a47ea670b442974b53935d1edc7fd64eb21e047a839171b60405160405180910390a45050565b600061031e8383610507565b600061031e836001600160a01b03841661056b565b600061032182610583565b600061031e836001600160a01b038416610587565b600061031e836001600160a01b0384166105d1565b815460009082106105495760405162461bcd60e51b81526004018080602001828103825260228152602001806106986022913960400191505060405180910390fd5b82600001828154811061055857fe5b9060005260206000200154905092915050565b60009081526001919091016020526040902054151590565b5490565b6000610593838361056b565b6105c957508154600181810184556000848152602080822090930184905584548482528286019093526040902091909155610321565b506000610321565b6000818152600183016020526040812054801561068d578354600019808301919081019060009087908390811061060457fe5b906000526020600020015490508087600001848154811061062157fe5b60009182526020808320909101929092558281526001898101909252604090209084019055865487908061065157fe5b60019003818190600052602060002001600090559055866001016000878152602001908152602001600020600090556001945050505050610321565b600091505061032156fe456e756d657261626c655365743a20696e646578206f7574206f6620626f756e6473416363657373436f6e74726f6c3a2073656e646572206d75737420626520616e2061646d696e20746f206772616e74416363657373436f6e74726f6c3a2073656e646572206d75737420626520616e2061646d696e20746f207265766f6b65416363657373436f6e74726f6c3a2063616e206f6e6c792072656e6f756e636520726f6c657320666f722073656c66a26469706673582212207889a4b58ef98bbe0f5304bf995dd11e91073211f478b8b8f9ed18762c09357464736f6c63430006060033",
  "linkReferences": {},
  "deployedLinkReferences": {}
}