{
  "_format": "hh-sol-artifact-1",
  "contractName": "ERC721GSNRecipientMock",
  "sourceName": "contracts/oz/mocks/ERC721GSNRecipientMock.sol",
  "abi": [
    {
      "inputs": [
        {
          "internalType": "string",
          "name": "name",
          "type": "string"
        },
        {
          "internalType": "string",
          "name": "symbol",
          "type": "string"
        },
        {
          "internalType": "address",
          "name": "trustedSigner",
          "type": "address"
        }
      ],
      "stateMutability": "nonpayable",
      "type": "constructor"
    },
    {
      "anonymous": false,
      "inputs": [
        {
          "indexed": true,
          "internalType": "address",
          "name": "owner",
          "type": "address"
        },
        {
          "indexed": true,
          "internalType": "address",
          "name": "approved",
          "type": "address"
        },
        {
          "indexed": true,
          "internalType": "uint256",
          "name": "tokenId",
          "type": "uint256"
        }
      ],
      "name": "Approval",
      "type": "event"
    },
    {
      "anonymous": false,
      "inputs": [
        {
          "indexed": true,
          "internalType": "address",
          "name": "owner",
          "type": "address"
        },
        {
          "indexed": true,
          "internalType": "address",
          "name": "operator",
          "type": "address"
        },
        {
          "indexed": false,
          "internalType": "bool",
          "name": "approved",
          "type": "bool"
        }
      ],
      "name": "ApprovalForAll",
      "type": "event"
    },
    {
      "anonymous": false,
      "inputs": [
        {
          "indexed": true,
          "internalType": "address",
          "name": "oldRelayHub",
          "type": "address"
        },
        {
          "indexed": true,
          "internalType": "address",
          "name": "newRelayHub",
          "type": "address"
        }
      ],
      "name": "RelayHubChanged",
      "type": "event"
    },
    {
      "anonymous": false,
      "inputs": [
        {
          "indexed": true,
          "internalType": "address",
          "name": "from",
          "type": "address"
        },
        {
          "indexed": true,
          "internalType": "address",
          "name": "to",
          "type": "address"
        },
        {
          "indexed": true,
          "internalType": "uint256",
          "name": "tokenId",
          "type": "uint256"
        }
      ],
      "name": "Transfer",
      "type": "event"
    },
    {
      "inputs": [
        {
          "internalType": "address",
          "name": "relay",
          "type": "address"
        },
        {
          "internalType": "address",
          "name": "from",
          "type": "address"
        },
        {
          "internalType": "bytes",
          "name": "encodedFunction",
          "type": "bytes"
        },
        {
          "internalType": "uint256",
          "name": "transactionFee",
          "type": "uint256"
        },
        {
          "internalType": "uint256",
          "name": "gasPrice",
          "type": "uint256"
        },
        {
          "internalType": "uint256",
          "name": "gasLimit",
          "type": "uint256"
        },
        {
          "internalType": "uint256",
          "name": "nonce",
          "type": "uint256"
        },
        {
          "internalType": "bytes",
          "name": "approvalData",
          "type": "bytes"
        },
        {
          "internalType": "uint256",
          "name": "",
          "type": "uint256"
        }
      ],
      "name": "acceptRelayedCall",
      "outputs": [
        {
          "internalType": "uint256",
          "name": "",
          "type": "uint256"
        },
        {
          "internalType": "bytes",
          "name": "",
          "type": "bytes"
        }
      ],
      "stateMutability": "view",
      "type": "function"
    },
    {
      "inputs": [
        {
          "internalType": "address",
          "name": "to",
          "type": "address"
        },
        {
          "internalType": "uint256",
          "name": "tokenId",
          "type": "uint256"
        }
      ],
      "name": "approve",
      "outputs": [],
      "stateMutability": "nonpayable",
      "type": "function"
    },
    {
      "inputs": [
        {
          "internalType": "address",
          "name": "owner",
          "type": "address"
        }
      ],
      "name": "balanceOf",
      "outputs": [
        {
          "internalType": "uint256",
          "name": "",
          "type": "uint256"
        }
      ],
      "stateMutability": "view",
      "type": "function"
    },
    {
      "inputs": [],
      "name": "baseURI",
      "outputs": [
        {
          "internalType": "string",
          "name": "",
          "type": "string"
        }
      ],
      "stateMutability": "view",
      "type": "function"
    },
    {
      "inputs": [
        {
          "internalType": "uint256",
          "name": "tokenId",
          "type": "uint256"
        }
      ],
      "name": "getApproved",
      "outputs": [
        {
          "internalType": "address",
          "name": "",
          "type": "address"
        }
      ],
      "stateMutability": "view",
      "type": "function"
    },
    {
      "inputs": [],
      "name": "getHubAddr",
      "outputs": [
        {
          "internalType": "address",
          "name": "",
          "type": "address"
        }
      ],
      "stateMutability": "view",
      "type": "function"
    },
    {
      "inputs": [
        {
          "internalType": "address",
          "name": "owner",
          "type": "address"
        },
        {
          "internalType": "address",
          "name": "operator",
          "type": "address"
        }
      ],
      "name": "isApprovedForAll",
      "outputs": [
        {
          "internalType": "bool",
          "name": "",
          "type": "bool"
        }
      ],
      "stateMutability": "view",
      "type": "function"
    },
    {
      "inputs": [
        {
          "internalType": "uint256",
          "name": "tokenId",
          "type": "uint256"
        }
      ],
      "name": "mint",
      "outputs": [],
      "stateMutability": "nonpayable",
      "type": "function"
    },
    {
      "inputs": [],
      "name": "name",
      "outputs": [
        {
          "internalType": "string",
          "name": "",
          "type": "string"
        }
      ],
      "stateMutability": "view",
      "type": "function"
    },
    {
      "inputs": [
        {
          "internalType": "uint256",
          "name": "tokenId",
          "type": "uint256"
        }
      ],
      "name": "ownerOf",
      "outputs": [
        {
          "internalType": "address",
          "name": "",
          "type": "address"
        }
      ],
      "stateMutability": "view",
      "type": "function"
    },
    {
      "inputs": [
        {
          "internalType": "bytes",
          "name": "context",
          "type": "bytes"
        },
        {
          "internalType": "bool",
          "name": "success",
          "type": "bool"
        },
        {
          "internalType": "uint256",
          "name": "actualCharge",
          "type": "uint256"
        },
        {
          "internalType": "bytes32",
          "name": "preRetVal",
          "type": "bytes32"
        }
      ],
      "name": "postRelayedCall",
      "outputs": [],
      "stateMutability": "nonpayable",
      "type": "function"
    },
    {
      "inputs": [
        {
          "internalType": "bytes",
          "name": "context",
          "type": "bytes"
        }
      ],
      "name": "preRelayedCall",
      "outputs": [
        {
          "internalType": "bytes32",
          "name": "",
          "type": "bytes32"
        }
      ],
      "stateMutability": "nonpayable",
      "type": "function"
    },
    {
      "inputs": [],
      "name": "relayHubVersion",
      "outputs": [
        {
          "internalType": "string",
          "name": "",
          "type": "string"
        }
      ],
      "stateMutability": "view",
      "type": "function"
    },
    {
      "inputs": [
        {
          "internalType": "address",
          "name": "from",
          "type": "address"
        },
        {
          "internalType": "address",
          "name": "to",
          "type": "address"
        },
        {
          "internalType": "uint256",
          "name": "tokenId",
          "type": "uint256"
        }
      ],
      "name": "safeTransferFrom",
      "outputs": [],
      "stateMutability": "nonpayable",
      "type": "function"
    },
    {
      "inputs": [
        {
          "internalType": "address",
          "name": "from",
          "type": "address"
        },
        {
          "internalType": "address",
          "name": "to",
          "type": "address"
        },
        {
          "internalType": "uint256",
          "name": "tokenId",
          "type": "uint256"
        },
        {
          "internalType": "bytes",
          "name": "_data",
          "type": "bytes"
        }
      ],
      "name": "safeTransferFrom",
      "outputs": [],
      "stateMutability": "nonpayable",
      "type": "function"
    },
    {
      "inputs": [
        {
          "internalType": "address",
          "name": "operator",
          "type": "address"
        },
        {
          "internalType": "bool",
          "name": "approved",
          "type": "bool"
        }
      ],
      "name": "setApprovalForAll",
      "outputs": [],
      "stateMutability": "nonpayable",
      "type": "function"
    },
    {
      "inputs": [
        {
          "internalType": "bytes4",
          "name": "interfaceId",
          "type": "bytes4"
        }
      ],
      "name": "supportsInterface",
      "outputs": [
        {
          "internalType": "bool",
          "name": "",
          "type": "bool"
        }
      ],
      "stateMutability": "view",
      "type": "function"
    },
    {
      "inputs": [],
      "name": "symbol",
      "outputs": [
        {
          "internalType": "string",
          "name": "",
          "type": "string"
        }
      ],
      "stateMutability": "view",
      "type": "function"
    },
    {
      "inputs": [
        {
          "internalType": "uint256",
          "name": "index",
          "type": "uint256"
        }
      ],
      "name": "tokenByIndex",
      "outputs": [
        {
          "internalType": "uint256",
          "name": "",
          "type": "uint256"
        }
      ],
      "stateMutability": "view",
      "type": "function"
    },
    {
      "inputs": [
        {
          "internalType": "address",
          "name": "owner",
          "type": "address"
        },
        {
          "internalType": "uint256",
          "name": "index",
          "type": "uint256"
        }
      ],
      "name": "tokenOfOwnerByIndex",
      "outputs": [
        {
          "internalType": "uint256",
          "name": "",
          "type": "uint256"
        }
      ],
      "stateMutability": "view",
      "type": "function"
    },
    {
      "inputs": [
        {
          "internalType": "uint256",
          "name": "tokenId",
          "type": "uint256"
        }
      ],
      "name": "tokenURI",
      "outputs": [
        {
          "internalType": "string",
          "name": "",
          "type": "string"
        }
      ],
      "stateMutability": "view",
      "type": "function"
    },
    {
      "inputs": [],
      "name": "totalSupply",
      "outputs": [
        {
          "internalType": "uint256",
          "name": "",
          "type": "uint256"
        }
      ],
      "stateMutability": "view",
      "type": "function"
    },
    {
      "inputs": [
        {
          "internalType": "address",
          "name": "from",
          "type": "address"
        },
        {
          "internalType": "address",
          "name": "to",
          "type": "address"
        },
        {
          "internalType": "uint256",
          "name": "tokenId",
          "type": "uint256"
        }
      ],
      "name": "transferFrom",
      "outputs": [],
      "stateMutability": "nonpayable",
      "type": "function"
    }
  ],
  "bytecode": "0x6080604052600a80546001600160a01b03191673d216153c06e857cd7f72665e0af1d7d82172f4941790553480156200003757600080fd5b506040516200284438038062002844833981810160405260608110156200005d57600080fd5b81019080805160405193929190846401000000008211156200007e57600080fd5b9083019060208201858111156200009457600080fd5b8251640100000000811182820188101715620000af57600080fd5b82525081516020918201929091019080838360005b83811015620000de578181015183820152602001620000c4565b50505050905090810190601f1680156200010c5780820380516001836020036101000a031916815260200191505b50604052602001805160405193929190846401000000008211156200013057600080fd5b9083019060208201858111156200014657600080fd5b82516401000000008111828201881017156200016157600080fd5b82525081516020918201929091019080838360005b838110156200019057818101518382015260200162000176565b50505050905090810190601f168015620001be5780820380516001836020036101000a031916815260200191505b506040526020015191508190508383620001e86301ffc9a760e01b6001600160e01b03620002d816565b8151620001fd9060069060208501906200035d565b508051620002139060079060208401906200035d565b506200022f6380ac58cd60e01b6001600160e01b03620002d816565b6200024a635b5e139f60e01b6001600160e01b03620002d816565b6200026563780e9d6360e01b6001600160e01b03620002d816565b50506001600160a01b038116620002ae5760405162461bcd60e51b81526004018080602001828103825260398152602001806200280b6039913960400191505060405180910390fd5b600b80546001600160a01b0319166001600160a01b03929092169190911790555062000402915050565b6001600160e01b0319808216141562000338576040805162461bcd60e51b815260206004820152601c60248201527f4552433136353a20696e76616c696420696e7465726661636520696400000000604482015290519081900360640190fd5b6001600160e01b0319166000908152602081905260409020805460ff19166001179055565b828054600181600116156101000203166002900490600052602060002090601f016020900481019282601f10620003a057805160ff1916838001178555620003d0565b82800160010185558215620003d0579182015b82811115620003d0578251825591602001919060010190620003b3565b50620003de929150620003e2565b5090565b620003ff91905b80821115620003de5760008155600101620003e9565b90565b6123f980620004126000396000f3fe608060405234801561001057600080fd5b506004361061014d5760003560e01c806370a08231116100c3578063a22cb4651161007c578063a22cb46514610638578063ad61ccd514610666578063b88d4fde1461066e578063c87b56dd14610732578063e06e0e221461074f578063e985e9c5146108005761014d565b806370a082311461036557806374e861d61461038b57806380274db71461039357806383947ea01461043757806395d89b4114610613578063a0712d681461061b5761014d565b806323b872dd1161011557806323b872dd1461028b5780632f745c59146102c157806342842e0e146102ed5780634f6ccce7146103235780636352211e146103405780636c0360eb1461035d5761014d565b806301ffc9a71461015257806306fdde031461018d578063081812fc1461020a578063095ea7b31461024357806318160ddd14610271575b600080fd5b6101796004803603602081101561016857600080fd5b50356001600160e01b03191661082e565b604080519115158252519081900360200190f35b610195610851565b6040805160208082528351818301528351919283929083019185019080838360005b838110156101cf5781810151838201526020016101b7565b50505050905090810190601f1680156101fc5780820380516001836020036101000a031916815260200191505b509250505060405180910390f35b6102276004803603602081101561022057600080fd5b50356108e8565b604080516001600160a01b039092168252519081900360200190f35b61026f6004803603604081101561025957600080fd5b506001600160a01b03813516906020013561094a565b005b610279610a25565b60408051918252519081900360200190f35b61026f600480360360608110156102a157600080fd5b506001600160a01b03813581169160208101359091169060400135610a36565b610279600480360360408110156102d757600080fd5b506001600160a01b038135169060200135610a8d565b61026f6004803603606081101561030357600080fd5b506001600160a01b03813581169160208101359091169060400135610abe565b6102796004803603602081101561033957600080fd5b5035610ad9565b6102276004803603602081101561035657600080fd5b5035610af5565b610195610b23565b6102796004803603602081101561037b57600080fd5b50356001600160a01b0316610b84565b610227610bec565b610279600480360360208110156103a957600080fd5b810190602081018135600160201b8111156103c357600080fd5b8201836020820111156103d557600080fd5b803590602001918460018302840111600160201b831117156103f657600080fd5b91908080601f016020809104026020016040519081016040528093929190818152602001838380828437600092019190915250929550610bfb945050505050565b610594600480360361012081101561044e57600080fd5b6001600160a01b038235811692602081013590911691810190606081016040820135600160201b81111561048157600080fd5b82018360208201111561049357600080fd5b803590602001918460018302840111600160201b831117156104b457600080fd5b91908080601f016020809104026020016040519081016040528093929190818152602001838380828437600092019190915250929584359560208601359560408101359550606081013594509192509060a081019060800135600160201b81111561051e57600080fd5b82018360208201111561053057600080fd5b803590602001918460018302840111600160201b8311171561055157600080fd5b91908080601f0160208091040260200160405190810160405280939291908181526020018383808284376000920191909152509295505091359250610c5d915050565b6040518083815260200180602001828103825283818151815260200191508051906020019080838360005b838110156105d75781810151838201526020016105bf565b50505050905090810190601f1680156106045780820380516001836020036101000a031916815260200191505b50935050505060405180910390f35b610195610db6565b61026f6004803603602081101561063157600080fd5b5035610e17565b61026f6004803603604081101561064e57600080fd5b506001600160a01b0381351690602001351515610e2b565b610195610f30565b61026f6004803603608081101561068457600080fd5b6001600160a01b03823581169260208101359091169160408201359190810190608081016060820135600160201b8111156106be57600080fd5b8201836020820111156106d057600080fd5b803590602001918460018302840111600160201b831117156106f157600080fd5b91908080601f016020809104026020016040519081016040528093929190818152602001838380828437600092019190915250929550610f4f945050505050565b6101956004803603602081101561074857600080fd5b5035610fad565b61026f6004803603608081101561076557600080fd5b810190602081018135600160201b81111561077f57600080fd5b82018360208201111561079157600080fd5b803590602001918460018302840111600160201b831117156107b257600080fd5b91908080601f01602080910402602001604051908101604052809392919081815260200183838082843760009201919091525092955050505080351515915060208101359060400135611254565b6101796004803603604081101561081657600080fd5b506001600160a01b03813581169160200135166112b7565b6001600160e01b0319811660009081526020819052604090205460ff165b919050565b60068054604080516020601f60026000196101006001881615020190951694909404938401819004810282018101909252828152606093909290918301828280156108dd5780601f106108b2576101008083540402835291602001916108dd565b820191906000526020600020905b8154815290600101906020018083116108c057829003601f168201915b505050505090505b90565b60006108f3826112e5565b61092e5760405162461bcd60e51b815260040180806020018281038252602c8152602001806122ca602c913960400191505060405180910390fd5b506000908152600460205260409020546001600160a01b031690565b600061095582610af5565b9050806001600160a01b0316836001600160a01b031614156109a85760405162461bcd60e51b815260040180806020018281038252602181526020018061234e6021913960400191505060405180910390fd5b806001600160a01b03166109ba6112f8565b6001600160a01b031614806109db57506109db816109d66112f8565b6112b7565b610a165760405162461bcd60e51b81526004018080602001828103825260388152602001806121fb6038913960400191505060405180910390fd5b610a208383611302565b505050565b6000610a316002611370565b905090565b610a47610a416112f8565b8261137b565b610a825760405162461bcd60e51b81526004018080602001828103825260318152602001806123936031913960400191505060405180910390fd5b610a2083838361141f565b6001600160a01b0382166000908152600160205260408120610ab5908363ffffffff61157d16565b90505b92915050565b610a2083838360405180602001604052806000815250610f4f565b600080610aed60028463ffffffff61158916565b509392505050565b6000610ab88260405180606001604052806029815260200161225d602991396002919063ffffffff6115a516565b60098054604080516020601f60026000196101006001881615020190951694909404938401819004810282018101909252828152606093909290918301828280156108dd5780601f106108b2576101008083540402835291602001916108dd565b60006001600160a01b038216610bcb5760405162461bcd60e51b815260040180806020018281038252602a815260200180612233602a913960400191505060405180910390fd5b6001600160a01b0382166000908152600160205260409020610ab890611370565b600a546001600160a01b031690565b6000610c05610bec565b6001600160a01b0316336001600160a01b031614610c545760405162461bcd60e51b815260040180806020018281038252602481526020018061236f6024913960400191505060405180910390fd5b610ab8826115bc565b60006060808b8b8b8b8b8b8b610c71610bec565b30604051602001808a6001600160a01b03166001600160a01b031660601b8152601401896001600160a01b03166001600160a01b031660601b815260140188805190602001908083835b60208310610cda5780518252601f199092019160209182019101610cbb565b51815160209384036101000a6000190180199092169116179052920198895250878101969096525060408087019490945260608087019390935290821b6bffffffffffffffffffffffff199081166080870152911b1660948401528051808403608801815260a89093019052600b548251918301919091209195506001600160a01b03169350610d7d9250889150610d71906115c2565b9063ffffffff61161316565b6001600160a01b03161415610d9e57610d946117fa565b9250925050610da8565b610d94600061181e565b995099975050505050505050565b60078054604080516020601f60026000196101006001881615020190951694909404938401819004810282018101909252828152606093909290918301828280156108dd5780601f106108b2576101008083540402835291602001916108dd565b610e28610e226112f8565b82611836565b50565b610e336112f8565b6001600160a01b0316826001600160a01b03161415610e99576040805162461bcd60e51b815260206004820152601960248201527f4552433732313a20617070726f766520746f2063616c6c657200000000000000604482015290519081900360640190fd5b8060056000610ea66112f8565b6001600160a01b03908116825260208083019390935260409182016000908120918716808252919093529120805460ff191692151592909217909155610eea6112f8565b60408051841515815290516001600160a01b0392909216917f17307eab39ab6107e8899845ad3d59bd9653f200f220920489ca2b5937696c319181900360200190a35050565b6040805180820190915260058152640312e302e360dc1b602082015290565b610f60610f5a6112f8565b8361137b565b610f9b5760405162461bcd60e51b81526004018080602001828103825260318152602001806123936031913960400191505060405180910390fd5b610fa784848484611970565b50505050565b6060610fb8826112e5565b610ff35760405162461bcd60e51b815260040180806020018281038252602f81526020018061231f602f913960400191505060405180910390fd5b60008281526008602090815260409182902080548351601f60026000196101006001861615020190931692909204918201849004840281018401909452808452606093928301828280156110885780601f1061105d57610100808354040283529160200191611088565b820191906000526020600020905b81548152906001019060200180831161106b57829003601f168201915b5050600954939450505050600260001961010060018416150201909116046110b157905061084c565b8051156111825760098160405160200180838054600181600116156101000203166002900480156111195780601f106110f7576101008083540402835291820191611119565b820191906000526020600020905b815481529060010190602001808311611105575b5050825160208401908083835b602083106111455780518252601f199092019160209182019101611126565b6001836020036101000a0380198251168184511680821785525050505050509050019250505060405160208183030381529060405291505061084c565b600961118d846119c2565b60405160200180838054600181600116156101000203166002900480156111eb5780601f106111c95761010080835404028352918201916111eb565b820191906000526020600020905b8154815290600101906020018083116111d7575b5050825160208401908083835b602083106112175780518252601f1990920191602091820191016111f8565b6001836020036101000a03801982511681845116808217855250505050505090500192505050604051602081830303815290604052915050919050565b61125c610bec565b6001600160a01b0316336001600160a01b0316146112ab5760405162461bcd60e51b815260040180806020018281038252602481526020018061236f6024913960400191505060405180910390fd5b610fa784848484610fa7565b6001600160a01b03918216600090815260056020908152604080832093909416825291909152205460ff1690565b6000610ab860028363ffffffff611a9d16565b6000610a31611aa9565b600081815260046020526040902080546001600160a01b0319166001600160a01b038416908117909155819061133782610af5565b6001600160a01b03167f8c5be1e5ebec7d5bd14f71427d1e84f3dd0314c0f7b2291e5b200ac8c7c3b92560405160405180910390a45050565b6000610ab882611ad4565b6000611386826112e5565b6113c15760405162461bcd60e51b815260040180806020018281038252602c8152602001806121cf602c913960400191505060405180910390fd5b60006113cc83610af5565b9050806001600160a01b0316846001600160a01b031614806114075750836001600160a01b03166113fc846108e8565b6001600160a01b0316145b80611417575061141781856112b7565b949350505050565b826001600160a01b031661143282610af5565b6001600160a01b0316146114775760405162461bcd60e51b81526004018080602001828103825260298152602001806122f66029913960400191505060405180910390fd5b6001600160a01b0382166114bc5760405162461bcd60e51b81526004018080602001828103825260248152602001806121896024913960400191505060405180910390fd5b6114c7838383610a20565b6114d2600082611302565b6001600160a01b03831660009081526001602052604090206114fa908263ffffffff611ad816565b506001600160a01b0382166000908152600160205260409020611523908263ffffffff611ae416565b506115366002828463ffffffff611af016565b5080826001600160a01b0316846001600160a01b03167fddf252ad1be2c89b69c2b068fc378daa952ba7f163c4a11628f55a4df523b3ef60405160405180910390a4505050565b6000610ab58383611b06565b60008080806115988686611b6a565b9097909650945050505050565b60006115b2848484611be5565b90505b9392505050565b50600090565b604080517f19457468657265756d205369676e6564204d6573736167653a0a333200000000602080830191909152603c8083019490945282518083039094018452605c909101909152815191012090565b6000815160411461166b576040805162461bcd60e51b815260206004820152601f60248201527f45434453413a20696e76616c6964207369676e6174757265206c656e67746800604482015290519081900360640190fd5b60208201516040830151606084015160001a7f7fffffffffffffffffffffffffffffff5d576e7357a4501ddfe92f46681b20a08211156116dc5760405162461bcd60e51b81526004018080602001828103825260228152602001806121ad6022913960400191505060405180910390fd5b8060ff16601b141580156116f457508060ff16601c14155b156117305760405162461bcd60e51b81526004018080602001828103825260228152602001806122866022913960400191505060405180910390fd5b60408051600080825260208083018085528a905260ff85168385015260608301879052608083018690529251909260019260a080820193601f1981019281900390910190855afa158015611788573d6000803e3d6000fd5b5050604051601f1901519150506001600160a01b0381166117f0576040805162461bcd60e51b815260206004820152601860248201527f45434453413a20696e76616c6964207369676e61747572650000000000000000604482015290519081900360640190fd5b9695505050505050565b6000606061181660405180602001604052806000815250611caf565b915091509091565b604080516020810190915260008152600b9190910191565b6001600160a01b038216611891576040805162461bcd60e51b815260206004820181905260248201527f4552433732313a206d696e7420746f20746865207a65726f2061646472657373604482015290519081900360640190fd5b61189a816112e5565b156118ec576040805162461bcd60e51b815260206004820152601c60248201527f4552433732313a20746f6b656e20616c7265616479206d696e74656400000000604482015290519081900360640190fd5b6118f860008383610a20565b6001600160a01b0382166000908152600160205260409020611920908263ffffffff611ae416565b506119336002828463ffffffff611af016565b5060405181906001600160a01b038416906000907fddf252ad1be2c89b69c2b068fc378daa952ba7f163c4a11628f55a4df523b3ef908290a45050565b61197b84848461141f565b61198784848484611cb4565b610fa75760405162461bcd60e51b81526004018080602001828103825260328152602001806121576032913960400191505060405180910390fd5b6060816119e757506040805180820190915260018152600360fc1b602082015261084c565b8160005b81156119ff57600101600a820491506119eb565b60608167ffffffffffffffff81118015611a1857600080fd5b506040519080825280601f01601f191660200182016040528015611a43576020820181803683370190505b50859350905060001982015b8315611a9457600a840660300160f81b82828060019003935081518110611a7257fe5b60200101906001600160f81b031916908160001a905350600a84049350611a4f565b50949350505050565b6000610ab58383611eef565b600a546000906001600160a01b03163314611ac55750336108e5565b611acd611f07565b90506108e5565b5490565b6000610ab58383611f54565b6000610ab5838361201a565b60006115b284846001600160a01b038516612064565b81546000908210611b485760405162461bcd60e51b81526004018080602001828103825260228152602001806121356022913960400191505060405180910390fd5b826000018281548110611b5757fe5b9060005260206000200154905092915050565b815460009081908310611bae5760405162461bcd60e51b81526004018080602001828103825260228152602001806122a86022913960400191505060405180910390fd5b6000846000018481548110611bbf57fe5b906000526020600020906002020190508060000154816001015492509250509250929050565b60008281526001840160205260408120548281611c805760405162461bcd60e51b81526004018080602001828103825283818151815260200191508051906020019080838360005b83811015611c45578181015183820152602001611c2d565b50505050905090810190601f168015611c725780820380516001836020036101000a031916815260200191505b509250505060405180910390fd5b50846000016001820381548110611c9357fe5b9060005260206000209060020201600101549150509392505050565b600091565b6000611cc8846001600160a01b03166120fb565b611cd457506001611417565b600060606001600160a01b038616630a85bd0160e11b611cf26112f8565b89888860405160240180856001600160a01b03166001600160a01b03168152602001846001600160a01b03166001600160a01b0316815260200183815260200180602001828103825283818151815260200191508051906020019080838360005b83811015611d6b578181015183820152602001611d53565b50505050905090810190601f168015611d985780820380516001836020036101000a031916815260200191505b5060408051601f198184030181529181526020820180516001600160e01b03166001600160e01b0319909a16999099178952518151919890975087965094509250829150849050835b60208310611e005780518252601f199092019160209182019101611de1565b6001836020036101000a0380198251168184511680821785525050505050509050019150506000604051808303816000865af19150503d8060008114611e62576040519150601f19603f3d011682016040523d82523d6000602084013e611e67565b606091505b509150915081611eb857805115611e815780518082602001fd5b60405162461bcd60e51b81526004018080602001828103825260328152602001806121576032913960400191505060405180910390fd5b6000818060200190516020811015611ecf57600080fd5b50516001600160e01b031916630a85bd0160e11b14935061141792505050565b60009081526001919091016020526040902054151590565b600060606000368080601f0160208091040260200160405190810160405280939291908181526020018383808284376000920191909152505050503601516001600160a01b031692915050565b600081815260018301602052604081205480156120105783546000198083019190810190600090879083908110611f8757fe5b9060005260206000200154905080876000018481548110611fa457fe5b600091825260208083209091019290925582815260018981019092526040902090840190558654879080611fd457fe5b60019003818190600052602060002001600090559055866001016000878152602001908152602001600020600090556001945050505050610ab8565b6000915050610ab8565b60006120268383611eef565b61205c57508154600181810184556000848152602080822090930184905584548482528286019093526040902091909155610ab8565b506000610ab8565b6000828152600184016020526040812054806120c95750506040805180820182528381526020808201848152865460018181018955600089815284812095516002909302909501918255915190820155865486845281880190925292909120556115b5565b828560000160018303815481106120dc57fe5b90600052602060002090600202016001018190555060009150506115b5565b6000813f7fc5d2460186f7233c927e7db2dcc703c0e500b653ca82273b7bfad8045d85a47081811480159061141757505015159291505056fe456e756d657261626c655365743a20696e646578206f7574206f6620626f756e64734552433732313a207472616e7366657220746f206e6f6e20455243373231526563656976657220696d706c656d656e7465724552433732313a207472616e7366657220746f20746865207a65726f206164647265737345434453413a20696e76616c6964207369676e6174757265202773272076616c75654552433732313a206f70657261746f7220717565727920666f72206e6f6e6578697374656e7420746f6b656e4552433732313a20617070726f76652063616c6c6572206973206e6f74206f776e6572206e6f7220617070726f76656420666f7220616c6c4552433732313a2062616c616e636520717565727920666f7220746865207a65726f20616464726573734552433732313a206f776e657220717565727920666f72206e6f6e6578697374656e7420746f6b656e45434453413a20696e76616c6964207369676e6174757265202776272076616c7565456e756d657261626c654d61703a20696e646578206f7574206f6620626f756e64734552433732313a20617070726f76656420717565727920666f72206e6f6e6578697374656e7420746f6b656e4552433732313a207472616e73666572206f6620746f6b656e2074686174206973206e6f74206f776e4552433732314d657461646174613a2055524920717565727920666f72206e6f6e6578697374656e7420746f6b656e4552433732313a20617070726f76616c20746f2063757272656e74206f776e657247534e526563697069656e743a2063616c6c6572206973206e6f742052656c61794875624552433732313a207472616e736665722063616c6c6572206973206e6f74206f776e6572206e6f7220617070726f766564a2646970667358221220344d2c809af0b85bddfa7056f9266ac0912371b2afb5e84dd8dac89e206e1f3064736f6c6343000606003347534e526563697069656e745369676e61747572653a2074727573746564207369676e657220697320746865207a65726f2061646472657373",
  "linkReferences": {},
  "deployedLinkReferences": {}
}