{
  "_format": "hh-sol-artifact-1",
  "contractName": "ERC721PausableMock",
  "sourceName": "contracts/oz/mocks/ERC721PausableMock.sol",
  "abi": [
    {
      "inputs": [
        {
          "internalType": "string",
          "name": "name",
          "type": "string"
        },
        {
          "internalType": "string",
          "name": "symbol",
          "type": "string"
        }
      ],
      "stateMutability": "nonpayable",
      "type": "constructor"
    },
    {
      "anonymous": false,
      "inputs": [
        {
          "indexed": true,
          "internalType": "address",
          "name": "owner",
          "type": "address"
        },
        {
          "indexed": true,
          "internalType": "address",
          "name": "approved",
          "type": "address"
        },
        {
          "indexed": true,
          "internalType": "uint256",
          "name": "tokenId",
          "type": "uint256"
        }
      ],
      "name": "Approval",
      "type": "event"
    },
    {
      "anonymous": false,
      "inputs": [
        {
          "indexed": true,
          "internalType": "address",
          "name": "owner",
          "type": "address"
        },
        {
          "indexed": true,
          "internalType": "address",
          "name": "operator",
          "type": "address"
        },
        {
          "indexed": false,
          "internalType": "bool",
          "name": "approved",
          "type": "bool"
        }
      ],
      "name": "ApprovalForAll",
      "type": "event"
    },
    {
      "anonymous": false,
      "inputs": [
        {
          "indexed": false,
          "internalType": "address",
          "name": "account",
          "type": "address"
        }
      ],
      "name": "Paused",
      "type": "event"
    },
    {
      "anonymous": false,
      "inputs": [
        {
          "indexed": true,
          "internalType": "address",
          "name": "from",
          "type": "address"
        },
        {
          "indexed": true,
          "internalType": "address",
          "name": "to",
          "type": "address"
        },
        {
          "indexed": true,
          "internalType": "uint256",
          "name": "tokenId",
          "type": "uint256"
        }
      ],
      "name": "Transfer",
      "type": "event"
    },
    {
      "anonymous": false,
      "inputs": [
        {
          "indexed": false,
          "internalType": "address",
          "name": "account",
          "type": "address"
        }
      ],
      "name": "Unpaused",
      "type": "event"
    },
    {
      "inputs": [
        {
          "internalType": "address",
          "name": "to",
          "type": "address"
        },
        {
          "internalType": "uint256",
          "name": "tokenId",
          "type": "uint256"
        }
      ],
      "name": "approve",
      "outputs": [],
      "stateMutability": "nonpayable",
      "type": "function"
    },
    {
      "inputs": [
        {
          "internalType": "address",
          "name": "owner",
          "type": "address"
        }
      ],
      "name": "balanceOf",
      "outputs": [
        {
          "internalType": "uint256",
          "name": "",
          "type": "uint256"
        }
      ],
      "stateMutability": "view",
      "type": "function"
    },
    {
      "inputs": [],
      "name": "baseURI",
      "outputs": [
        {
          "internalType": "string",
          "name": "",
          "type": "string"
        }
      ],
      "stateMutability": "view",
      "type": "function"
    },
    {
      "inputs": [
        {
          "internalType": "uint256",
          "name": "tokenId",
          "type": "uint256"
        }
      ],
      "name": "burn",
      "outputs": [],
      "stateMutability": "nonpayable",
      "type": "function"
    },
    {
      "inputs": [
        {
          "internalType": "uint256",
          "name": "tokenId",
          "type": "uint256"
        }
      ],
      "name": "exists",
      "outputs": [
        {
          "internalType": "bool",
          "name": "",
          "type": "bool"
        }
      ],
      "stateMutability": "view",
      "type": "function"
    },
    {
      "inputs": [
        {
          "internalType": "uint256",
          "name": "tokenId",
          "type": "uint256"
        }
      ],
      "name": "getApproved",
      "outputs": [
        {
          "internalType": "address",
          "name": "",
          "type": "address"
        }
      ],
      "stateMutability": "view",
      "type": "function"
    },
    {
      "inputs": [
        {
          "internalType": "address",
          "name": "owner",
          "type": "address"
        },
        {
          "internalType": "address",
          "name": "operator",
          "type": "address"
        }
      ],
      "name": "isApprovedForAll",
      "outputs": [
        {
          "internalType": "bool",
          "name": "",
          "type": "bool"
        }
      ],
      "stateMutability": "view",
      "type": "function"
    },
    {
      "inputs": [
        {
          "internalType": "address",
          "name": "to",
          "type": "address"
        },
        {
          "internalType": "uint256",
          "name": "tokenId",
          "type": "uint256"
        }
      ],
      "name": "mint",
      "outputs": [],
      "stateMutability": "nonpayable",
      "type": "function"
    },
    {
      "inputs": [],
      "name": "name",
      "outputs": [
        {
          "internalType": "string",
          "name": "",
          "type": "string"
        }
      ],
      "stateMutability": "view",
      "type": "function"
    },
    {
      "inputs": [
        {
          "internalType": "uint256",
          "name": "tokenId",
          "type": "uint256"
        }
      ],
      "name": "ownerOf",
      "outputs": [
        {
          "internalType": "address",
          "name": "",
          "type": "address"
        }
      ],
      "stateMutability": "view",
      "type": "function"
    },
    {
      "inputs": [],
      "name": "pause",
      "outputs": [],
      "stateMutability": "nonpayable",
      "type": "function"
    },
    {
      "inputs": [],
      "name": "paused",
      "outputs": [
        {
          "internalType": "bool",
          "name": "",
          "type": "bool"
        }
      ],
      "stateMutability": "view",
      "type": "function"
    },
    {
      "inputs": [
        {
          "internalType": "address",
          "name": "from",
          "type": "address"
        },
        {
          "internalType": "address",
          "name": "to",
          "type": "address"
        },
        {
          "internalType": "uint256",
          "name": "tokenId",
          "type": "uint256"
        }
      ],
      "name": "safeTransferFrom",
      "outputs": [],
      "stateMutability": "nonpayable",
      "type": "function"
    },
    {
      "inputs": [
        {
          "internalType": "address",
          "name": "from",
          "type": "address"
        },
        {
          "internalType": "address",
          "name": "to",
          "type": "address"
        },
        {
          "internalType": "uint256",
          "name": "tokenId",
          "type": "uint256"
        },
        {
          "internalType": "bytes",
          "name": "_data",
          "type": "bytes"
        }
      ],
      "name": "safeTransferFrom",
      "outputs": [],
      "stateMutability": "nonpayable",
      "type": "function"
    },
    {
      "inputs": [
        {
          "internalType": "address",
          "name": "operator",
          "type": "address"
        },
        {
          "internalType": "bool",
          "name": "approved",
          "type": "bool"
        }
      ],
      "name": "setApprovalForAll",
      "outputs": [],
      "stateMutability": "nonpayable",
      "type": "function"
    },
    {
      "inputs": [
        {
          "internalType": "bytes4",
          "name": "interfaceId",
          "type": "bytes4"
        }
      ],
      "name": "supportsInterface",
      "outputs": [
        {
          "internalType": "bool",
          "name": "",
          "type": "bool"
        }
      ],
      "stateMutability": "view",
      "type": "function"
    },
    {
      "inputs": [],
      "name": "symbol",
      "outputs": [
        {
          "internalType": "string",
          "name": "",
          "type": "string"
        }
      ],
      "stateMutability": "view",
      "type": "function"
    },
    {
      "inputs": [
        {
          "internalType": "uint256",
          "name": "index",
          "type": "uint256"
        }
      ],
      "name": "tokenByIndex",
      "outputs": [
        {
          "internalType": "uint256",
          "name": "",
          "type": "uint256"
        }
      ],
      "stateMutability": "view",
      "type": "function"
    },
    {
      "inputs": [
        {
          "internalType": "address",
          "name": "owner",
          "type": "address"
        },
        {
          "internalType": "uint256",
          "name": "index",
          "type": "uint256"
        }
      ],
      "name": "tokenOfOwnerByIndex",
      "outputs": [
        {
          "internalType": "uint256",
          "name": "",
          "type": "uint256"
        }
      ],
      "stateMutability": "view",
      "type": "function"
    },
    {
      "inputs": [
        {
          "internalType": "uint256",
          "name": "tokenId",
          "type": "uint256"
        }
      ],
      "name": "tokenURI",
      "outputs": [
        {
          "internalType": "string",
          "name": "",
          "type": "string"
        }
      ],
      "stateMutability": "view",
      "type": "function"
    },
    {
      "inputs": [],
      "name": "totalSupply",
      "outputs": [
        {
          "internalType": "uint256",
          "name": "",
          "type": "uint256"
        }
      ],
      "stateMutability": "view",
      "type": "function"
    },
    {
      "inputs": [
        {
          "internalType": "address",
          "name": "from",
          "type": "address"
        },
        {
          "internalType": "address",
          "name": "to",
          "type": "address"
        },
        {
          "internalType": "uint256",
          "name": "tokenId",
          "type": "uint256"
        }
      ],
      "name": "transferFrom",
      "outputs": [],
      "stateMutability": "nonpayable",
      "type": "function"
    },
    {
      "inputs": [],
      "name": "unpause",
      "outputs": [],
      "stateMutability": "nonpayable",
      "type": "function"
    }
  ],
  "bytecode": "0x60806040523480156200001157600080fd5b50604051620022cb380380620022cb833981810160405260408110156200003757600080fd5b81019080805160405193929190846401000000008211156200005857600080fd5b9083019060208201858111156200006e57600080fd5b82516401000000008111828201881017156200008957600080fd5b82525081516020918201929091019080838360005b83811015620000b85781810151838201526020016200009e565b50505050905090810190601f168015620000e65780820380516001836020036101000a031916815260200191505b50604052602001805160405193929190846401000000008211156200010a57600080fd5b9083019060208201858111156200012057600080fd5b82516401000000008111828201881017156200013b57600080fd5b82525081516020918201929091019080838360005b838110156200016a57818101518382015260200162000150565b50505050905090810190601f168015620001985780820380516001836020036101000a031916815260200191505b5060405250839150829050620001be6301ffc9a760e01b6001600160e01b036200025016565b8151620001d3906006906020850190620002d5565b508051620001e9906007906020840190620002d5565b50620002056380ac58cd60e01b6001600160e01b036200025016565b62000220635b5e139f60e01b6001600160e01b036200025016565b6200023b63780e9d6360e01b6001600160e01b036200025016565b5050600a805460ff19169055506200037a9050565b6001600160e01b03198082161415620002b0576040805162461bcd60e51b815260206004820152601c60248201527f4552433136353a20696e76616c696420696e7465726661636520696400000000604482015290519081900360640190fd5b6001600160e01b0319166000908152602081905260409020805460ff19166001179055565b828054600181600116156101000203166002900490600052602060002090601f016020900481019282601f106200031857805160ff191683800117855562000348565b8280016001018555821562000348579182015b82811115620003485782518255916020019190600101906200032b565b50620003569291506200035a565b5090565b6200037791905b8082111562000356576000815560010162000361565b90565b611f41806200038a6000396000f3fe608060405234801561001057600080fd5b506004361061014d5760003560e01c80634f558e79116100c35780638456cb591161007c5780638456cb591461040157806395d89b4114610409578063a22cb46514610411578063b88d4fde1461043f578063c87b56dd14610505578063e985e9c5146105225761014d565b80634f558e79146103745780634f6ccce7146103915780635c975abb146103ae5780636352211e146103b65780636c0360eb146103d357806370a08231146103db5761014d565b806323b872dd1161011557806323b872dd1461028b5780632f745c59146102c15780633f4ba83a146102ed57806340c10f19146102f557806342842e0e1461032157806342966c68146103575761014d565b806301ffc9a71461015257806306fdde031461018d578063081812fc1461020a578063095ea7b31461024357806318160ddd14610271575b600080fd5b6101796004803603602081101561016857600080fd5b50356001600160e01b031916610550565b604080519115158252519081900360200190f35b610195610573565b6040805160208082528351818301528351919283929083019185019080838360005b838110156101cf5781810151838201526020016101b7565b50505050905090810190601f1680156101fc5780820380516001836020036101000a031916815260200191505b509250505060405180910390f35b6102276004803603602081101561022057600080fd5b503561060a565b604080516001600160a01b039092168252519081900360200190f35b61026f6004803603604081101561025957600080fd5b506001600160a01b03813516906020013561066c565b005b610279610747565b60408051918252519081900360200190f35b61026f600480360360608110156102a157600080fd5b506001600160a01b03813581169160208101359091169060400135610758565b610279600480360360408110156102d757600080fd5b506001600160a01b0381351690602001356107af565b61026f6107e0565b61026f6004803603604081101561030b57600080fd5b506001600160a01b0381351690602001356107ea565b61026f6004803603606081101561033757600080fd5b506001600160a01b038135811691602081013590911690604001356107f8565b61026f6004803603602081101561036d57600080fd5b5035610813565b6101796004803603602081101561038a57600080fd5b503561081f565b610279600480360360208110156103a757600080fd5b503561082a565b610179610846565b610227600480360360208110156103cc57600080fd5b503561084f565b61019561087d565b610279600480360360208110156103f157600080fd5b50356001600160a01b03166108de565b61026f610946565b61019561094e565b61026f6004803603604081101561042757600080fd5b506001600160a01b03813516906020013515156109af565b61026f6004803603608081101561045557600080fd5b6001600160a01b0382358116926020810135909116916040820135919081019060808101606082013564010000000081111561049057600080fd5b8201836020820111156104a257600080fd5b803590602001918460018302840111640100000000831117156104c457600080fd5b91908080601f016020809104026020016040519081016040528093929190818152602001838380828437600092019190915250929550610ab4945050505050565b6101956004803603602081101561051b57600080fd5b5035610b12565b6101796004803603604081101561053857600080fd5b506001600160a01b0381358116916020013516610db9565b6001600160e01b0319811660009081526020819052604090205460ff165b919050565b60068054604080516020601f60026000196101006001881615020190951694909404938401819004810282018101909252828152606093909290918301828280156105ff5780601f106105d4576101008083540402835291602001916105ff565b820191906000526020600020905b8154815290600101906020018083116105e257829003601f168201915b505050505090505b90565b600061061582610de7565b6106505760405162461bcd60e51b815260040180806020018281038252602c815260200180611e36602c913960400191505060405180910390fd5b506000908152600460205260409020546001600160a01b031690565b60006106778261084f565b9050806001600160a01b0316836001600160a01b031614156106ca5760405162461bcd60e51b8152600401808060200182810382526021815260200180611eba6021913960400191505060405180910390fd5b806001600160a01b03166106dc610dfa565b6001600160a01b031614806106fd57506106fd816106f8610dfa565b610db9565b6107385760405162461bcd60e51b8152600401808060200182810382526038815260200180611d896038913960400191505060405180910390fd5b6107428383610dfe565b505050565b60006107536002610e6c565b905090565b610769610763610dfa565b82610e77565b6107a45760405162461bcd60e51b8152600401808060200182810382526031815260200180611edb6031913960400191505060405180910390fd5b610742838383610f1b565b6001600160a01b03821660009081526001602052604081206107d7908363ffffffff61107916565b90505b92915050565b6107e8611085565b565b6107f48282611123565b5050565b61074283838360405180602001604052806000815250610ab4565b61081c8161125d565b50565b60006107da82610de7565b60008061083e60028463ffffffff61133616565b509392505050565b600a5460ff1690565b60006107da82604051806060016040528060298152602001611deb602991396002919063ffffffff61135216565b60098054604080516020601f60026000196101006001881615020190951694909404938401819004810282018101909252828152606093909290918301828280156105ff5780601f106105d4576101008083540402835291602001916105ff565b60006001600160a01b0382166109255760405162461bcd60e51b815260040180806020018281038252602a815260200180611dc1602a913960400191505060405180910390fd5b6001600160a01b03821660009081526001602052604090206107da90610e6c565b6107e8611369565b60078054604080516020601f60026000196101006001881615020190951694909404938401819004810282018101909252828152606093909290918301828280156105ff5780601f106105d4576101008083540402835291602001916105ff565b6109b7610dfa565b6001600160a01b0316826001600160a01b03161415610a1d576040805162461bcd60e51b815260206004820152601960248201527f4552433732313a20617070726f766520746f2063616c6c657200000000000000604482015290519081900360640190fd5b8060056000610a2a610dfa565b6001600160a01b03908116825260208083019390935260409182016000908120918716808252919093529120805460ff191692151592909217909155610a6e610dfa565b60408051841515815290516001600160a01b0392909216917f17307eab39ab6107e8899845ad3d59bd9653f200f220920489ca2b5937696c319181900360200190a35050565b610ac5610abf610dfa565b83610e77565b610b005760405162461bcd60e51b8152600401808060200182810382526031815260200180611edb6031913960400191505060405180910390fd5b610b0c848484846113ea565b50505050565b6060610b1d82610de7565b610b585760405162461bcd60e51b815260040180806020018281038252602f815260200180611e8b602f913960400191505060405180910390fd5b60008281526008602090815260409182902080548351601f6002600019610100600186161502019093169290920491820184900484028101840190945280845260609392830182828015610bed5780601f10610bc257610100808354040283529160200191610bed565b820191906000526020600020905b815481529060010190602001808311610bd057829003601f168201915b505060095493945050505060026000196101006001841615020190911604610c1657905061056e565b805115610ce7576009816040516020018083805460018160011615610100020316600290048015610c7e5780601f10610c5c576101008083540402835291820191610c7e565b820191906000526020600020905b815481529060010190602001808311610c6a575b5050825160208401908083835b60208310610caa5780518252601f199092019160209182019101610c8b565b6001836020036101000a0380198251168184511680821785525050505050509050019250505060405160208183030381529060405291505061056e565b6009610cf28461143c565b6040516020018083805460018160011615610100020316600290048015610d505780601f10610d2e576101008083540402835291820191610d50565b820191906000526020600020905b815481529060010190602001808311610d3c575b5050825160208401908083835b60208310610d7c5780518252601f199092019160209182019101610d5d565b6001836020036101000a03801982511681845116808217855250505050505090500192505050604051602081830303815290604052915050919050565b6001600160a01b03918216600090815260056020908152604080832093909416825291909152205460ff1690565b60006107da60028363ffffffff61151716565b3390565b600081815260046020526040902080546001600160a01b0319166001600160a01b0384169081179091558190610e338261084f565b6001600160a01b03167f8c5be1e5ebec7d5bd14f71427d1e84f3dd0314c0f7b2291e5b200ac8c7c3b92560405160405180910390a45050565b60006107da82611523565b6000610e8282610de7565b610ebd5760405162461bcd60e51b815260040180806020018281038252602c815260200180611d5d602c913960400191505060405180910390fd5b6000610ec88361084f565b9050806001600160a01b0316846001600160a01b03161480610f035750836001600160a01b0316610ef88461060a565b6001600160a01b0316145b80610f135750610f138185610db9565b949350505050565b826001600160a01b0316610f2e8261084f565b6001600160a01b031614610f735760405162461bcd60e51b8152600401808060200182810382526029815260200180611e626029913960400191505060405180910390fd5b6001600160a01b038216610fb85760405162461bcd60e51b8152600401808060200182810382526024815260200180611d396024913960400191505060405180910390fd5b610fc3838383611527565b610fce600082610dfe565b6001600160a01b0383166000908152600160205260409020610ff6908263ffffffff61157616565b506001600160a01b038216600090815260016020526040902061101f908263ffffffff61158216565b506110326002828463ffffffff61158e16565b5080826001600160a01b0316846001600160a01b03167fddf252ad1be2c89b69c2b068fc378daa952ba7f163c4a11628f55a4df523b3ef60405160405180910390a4505050565b60006107d783836115a4565b600a5460ff166110d3576040805162461bcd60e51b815260206004820152601460248201527314185d5cd8589b194e881b9bdd081c185d5cd95960621b604482015290519081900360640190fd5b600a805460ff191690557f5db9ee0a495bf2e6ff9c91a7834c1ba4fdd244a5e8aa4e537bd38aeae4b073aa611106610dfa565b604080516001600160a01b039092168252519081900360200190a1565b6001600160a01b03821661117e576040805162461bcd60e51b815260206004820181905260248201527f4552433732313a206d696e7420746f20746865207a65726f2061646472657373604482015290519081900360640190fd5b61118781610de7565b156111d9576040805162461bcd60e51b815260206004820152601c60248201527f4552433732313a20746f6b656e20616c7265616479206d696e74656400000000604482015290519081900360640190fd5b6111e560008383611527565b6001600160a01b038216600090815260016020526040902061120d908263ffffffff61158216565b506112206002828463ffffffff61158e16565b5060405181906001600160a01b038416906000907fddf252ad1be2c89b69c2b068fc378daa952ba7f163c4a11628f55a4df523b3ef908290a45050565b60006112688261084f565b905061127681600084611527565b611281600083610dfe565b60008281526008602052604090205460026000196101006001841615020190911604156112bf5760008281526008602052604081206112bf91611c60565b6001600160a01b03811660009081526001602052604090206112e7908363ffffffff61157616565b506112f960028363ffffffff61160816565b5060405182906000906001600160a01b038416907fddf252ad1be2c89b69c2b068fc378daa952ba7f163c4a11628f55a4df523b3ef908390a45050565b60008080806113458686611614565b9097909650945050505050565b600061135f84848461168f565b90505b9392505050565b600a5460ff16156113b4576040805162461bcd60e51b815260206004820152601060248201526f14185d5cd8589b194e881c185d5cd95960821b604482015290519081900360640190fd5b600a805460ff191660011790557f62e78cea01bee320cd4e420270b5ea74000d11b0c9f74754ebdbfc544b05a258611106610dfa565b6113f5848484610f1b565b61140184848484611759565b610b0c5760405162461bcd60e51b8152600401808060200182810382526032815260200180611d076032913960400191505060405180910390fd5b60608161146157506040805180820190915260018152600360fc1b602082015261056e565b8160005b811561147957600101600a82049150611465565b60608167ffffffffffffffff8111801561149257600080fd5b506040519080825280601f01601f1916602001820160405280156114bd576020820181803683370190505b50859350905060001982015b831561150e57600a840660300160f81b828280600190039350815181106114ec57fe5b60200101906001600160f81b031916908160001a905350600a840493506114c9565b50949350505050565b60006107d78383611994565b5490565b611532838383610742565b61153a610846565b156107425760405162461bcd60e51b815260040180806020018281038252602b815260200180611cdc602b913960400191505060405180910390fd5b60006107d783836119ac565b60006107d78383611a72565b600061135f84846001600160a01b038516611abc565b815460009082106115e65760405162461bcd60e51b8152600401808060200182810382526022815260200180611cba6022913960400191505060405180910390fd5b8260000182815481106115f557fe5b9060005260206000200154905092915050565b60006107d78383611b53565b8154600090819083106116585760405162461bcd60e51b8152600401808060200182810382526022815260200180611e146022913960400191505060405180910390fd5b600084600001848154811061166957fe5b906000526020600020906002020190508060000154816001015492509250509250929050565b6000828152600184016020526040812054828161172a5760405162461bcd60e51b81526004018080602001828103825283818151815260200191508051906020019080838360005b838110156116ef5781810151838201526020016116d7565b50505050905090810190601f16801561171c5780820380516001836020036101000a031916815260200191505b509250505060405180910390fd5b5084600001600182038154811061173d57fe5b9060005260206000209060020201600101549150509392505050565b600061176d846001600160a01b0316611c27565b61177957506001610f13565b600060606001600160a01b038616630a85bd0160e11b611797610dfa565b89888860405160240180856001600160a01b03166001600160a01b03168152602001846001600160a01b03166001600160a01b0316815260200183815260200180602001828103825283818151815260200191508051906020019080838360005b838110156118105781810151838201526020016117f8565b50505050905090810190601f16801561183d5780820380516001836020036101000a031916815260200191505b5060408051601f198184030181529181526020820180516001600160e01b03166001600160e01b0319909a16999099178952518151919890975087965094509250829150849050835b602083106118a55780518252601f199092019160209182019101611886565b6001836020036101000a0380198251168184511680821785525050505050509050019150506000604051808303816000865af19150503d8060008114611907576040519150601f19603f3d011682016040523d82523d6000602084013e61190c565b606091505b50915091508161195d578051156119265780518082602001fd5b60405162461bcd60e51b8152600401808060200182810382526032815260200180611d076032913960400191505060405180910390fd5b600081806020019051602081101561197457600080fd5b50516001600160e01b031916630a85bd0160e11b149350610f1392505050565b60009081526001919091016020526040902054151590565b60008181526001830160205260408120548015611a6857835460001980830191908101906000908790839081106119df57fe5b90600052602060002001549050808760000184815481106119fc57fe5b600091825260208083209091019290925582815260018981019092526040902090840190558654879080611a2c57fe5b600190038181906000526020600020016000905590558660010160008781526020019081526020016000206000905560019450505050506107da565b60009150506107da565b6000611a7e8383611994565b611ab4575081546001818101845560008481526020808220909301849055845484825282860190935260409020919091556107da565b5060006107da565b600082815260018401602052604081205480611b21575050604080518082018252838152602080820184815286546001818101895560008981528481209551600290930290950191825591519082015586548684528188019092529290912055611362565b82856000016001830381548110611b3457fe5b9060005260206000209060020201600101819055506000915050611362565b60008181526001830160205260408120548015611a685783546000198083019190810190600090879083908110611b8657fe5b9060005260206000209060020201905080876000018481548110611ba657fe5b600091825260208083208454600290930201918255600193840154918401919091558354825289830190526040902090840190558654879080611be557fe5b60008281526020808220600260001990940193840201828155600190810183905592909355888152898201909252604082209190915594506107da9350505050565b6000813f7fc5d2460186f7233c927e7db2dcc703c0e500b653ca82273b7bfad8045d85a470818114801590610f13575050151592915050565b50805460018160011615610100020316600290046000825580601f10611c86575061081c565b600091825260209182902061081c9261060792601f01048101905b80821115611cb55760008155600101611ca1565b509056fe456e756d657261626c655365743a20696e646578206f7574206f6620626f756e64734552433732315061757361626c653a20746f6b656e207472616e73666572207768696c65207061757365644552433732313a207472616e7366657220746f206e6f6e20455243373231526563656976657220696d706c656d656e7465724552433732313a207472616e7366657220746f20746865207a65726f20616464726573734552433732313a206f70657261746f7220717565727920666f72206e6f6e6578697374656e7420746f6b656e4552433732313a20617070726f76652063616c6c6572206973206e6f74206f776e6572206e6f7220617070726f76656420666f7220616c6c4552433732313a2062616c616e636520717565727920666f7220746865207a65726f20616464726573734552433732313a206f776e657220717565727920666f72206e6f6e6578697374656e7420746f6b656e456e756d657261626c654d61703a20696e646578206f7574206f6620626f756e64734552433732313a20617070726f76656420717565727920666f72206e6f6e6578697374656e7420746f6b656e4552433732313a207472616e73666572206f6620746f6b656e2074686174206973206e6f74206f776e4552433732314d657461646174613a2055524920717565727920666f72206e6f6e6578697374656e7420746f6b656e4552433732313a20617070726f76616c20746f2063757272656e74206f776e65724552433732313a207472616e736665722063616c6c6572206973206e6f74206f776e6572206e6f7220617070726f766564a2646970667358221220d69d80f8c965feaa2f05e3a15dcb15f336aade73865abffcbb44eb1e270a99b364736f6c63430006060033",
  "linkReferences": {},
  "deployedLinkReferences": {}
}