{
  "_format": "hh-sol-artifact-1",
  "contractName": "SupportsInterfaceWithLookupMock",
  "sourceName": "contracts/oz/mocks/ERC165/ERC165InterfacesSupported.sol",
  "abi": [
    {
      "inputs": [],
      "stateMutability": "nonpayable",
      "type": "constructor"
    },
    {
      "inputs": [],
      "name": "INTERFACE_ID_ERC165",
      "outputs": [
        {
          "internalType": "bytes4",
          "name": "",
          "type": "bytes4"
        }
      ],
      "stateMutability": "view",
      "type": "function"
    },
    {
      "inputs": [
        {
          "internalType": "bytes4",
          "name": "interfaceId",
          "type": "bytes4"
        }
      ],
      "name": "supportsInterface",
      "outputs": [
        {
          "internalType": "bool",
          "name": "",
          "type": "bool"
        }
      ],
      "stateMutability": "view",
      "type": "function"
    }
  ],
  "bytecode": "0x608060405234801561001057600080fd5b5061002a6301ffc9a760e01b6001600160e01b0361002f16565b61009d565b6001600160e01b031980821614156100785760405162461bcd60e51b815260040180806020018281038252602f81526020018061019d602f913960400191505060405180910390fd5b6001600160e01b0319166000908152602081905260409020805460ff19166001179055565b60f2806100ab6000396000f3fe6080604052348015600f57600080fd5b506004361060325760003560e01c806301ffc9a714603757806334d7006c14606f575b600080fd5b605b60048036036020811015604b57600080fd5b50356001600160e01b0319166092565b604080519115158252519081900360200190f35b607560b1565b604080516001600160e01b03199092168252519081900360200190f35b6001600160e01b03191660009081526020819052604090205460ff1690565b6301ffc9a760e01b8156fea264697066735822122033ef55ab877443be6fe920af16c22ddd81ea4e5edb8bfe3f370064948f60557f64736f6c63430006060033455243313635496e7465726661636573537570706f727465643a20696e76616c696420696e74657266616365206964",
  "linkReferences": {},
  "deployedLinkReferences": {}
}