{
  "_format": "hh-sol-artifact-1",
  "contractName": "ECDSAMock",
  "sourceName": "contracts/oz/mocks/ECDSAMock.sol",
  "abi": [
    {
      "inputs": [
        {
          "internalType": "bytes32",
          "name": "hash",
          "type": "bytes32"
        },
        {
          "internalType": "bytes",
          "name": "signature",
          "type": "bytes"
        }
      ],
      "name": "recover",
      "outputs": [
        {
          "internalType": "address",
          "name": "",
          "type": "address"
        }
      ],
      "stateMutability": "pure",
      "type": "function"
    },
    {
      "inputs": [
        {
          "internalType": "bytes32",
          "name": "hash",
          "type": "bytes32"
        }
      ],
      "name": "toEthSignedMessageHash",
      "outputs": [
        {
          "internalType": "bytes32",
          "name": "",
          "type": "bytes32"
        }
      ],
      "stateMutability": "pure",
      "type": "function"
    }
  ],
  "bytecode": "0x608060405234801561001057600080fd5b5061040f806100206000396000f3fe608060405234801561001057600080fd5b50600436106100365760003560e01c806319045a251461003b578063918a15cf14610104575b600080fd5b6100e86004803603604081101561005157600080fd5b8135919081019060408101602082013564010000000081111561007357600080fd5b82018360208201111561008557600080fd5b803590602001918460018302840111640100000000831117156100a757600080fd5b91908080601f016020809104026020016040519081016040528093929190818152602001838380828437600092019190915250929550610133945050505050565b604080516001600160a01b039092168252519081900360200190f35b6101216004803603602081101561011a57600080fd5b503561014c565b60408051918252519081900360200190f35b6000610145838363ffffffff61015d16565b9392505050565b600061015782610344565b92915050565b600081516041146101b5576040805162461bcd60e51b815260206004820152601f60248201527f45434453413a20696e76616c6964207369676e6174757265206c656e67746800604482015290519081900360640190fd5b60208201516040830151606084015160001a7f7fffffffffffffffffffffffffffffff5d576e7357a4501ddfe92f46681b20a08211156102265760405162461bcd60e51b81526004018080602001828103825260228152602001806103966022913960400191505060405180910390fd5b8060ff16601b1415801561023e57508060ff16601c14155b1561027a5760405162461bcd60e51b81526004018080602001828103825260228152602001806103b86022913960400191505060405180910390fd5b60408051600080825260208083018085528a905260ff85168385015260608301879052608083018690529251909260019260a080820193601f1981019281900390910190855afa1580156102d2573d6000803e3d6000fd5b5050604051601f1901519150506001600160a01b03811661033a576040805162461bcd60e51b815260206004820152601860248201527f45434453413a20696e76616c6964207369676e61747572650000000000000000604482015290519081900360640190fd5b9695505050505050565b604080517f19457468657265756d205369676e6564204d6573736167653a0a333200000000602080830191909152603c8083019490945282518083039094018452605c90910190915281519101209056fe45434453413a20696e76616c6964207369676e6174757265202773272076616c756545434453413a20696e76616c6964207369676e6174757265202776272076616c7565a264697066735822122009a410bc52e33033b1782bbdcf47a65d1e81175d6e04ee037a643bc41cdbc56264736f6c63430006060033",
  "linkReferences": {},
  "deployedLinkReferences": {}
}