{
  "_format": "hh-sol-artifact-1",
  "contractName": "FlashLoan",
  "sourceName": "contracts/Flashloan.sol",
  "abi": [
    {
      "inputs": [
        {
          "internalType": "address",
          "name": "_uniswapRouter",
          "type": "address"
        },
        {
          "internalType": "address",
          "name": "_addressesProvider",
          "type": "address"
        }
      ],
      "stateMutability": "nonpayable",
      "type": "constructor"
    },
    {
      "anonymous": false,
      "inputs": [
        {
          "indexed": true,
          "internalType": "address",
          "name": "_from",
          "type": "address"
        },
        {
          "indexed": true,
          "internalType": "address",
          "name": "_assetAddress",
          "type": "address"
        },
        {
          "indexed": false,
          "internalType": "uint256",
          "name": "amount",
          "type": "uint256"
        }
      ],
      "name": "LogWithdraw",
      "type": "event"
    },
    {
      "anonymous": false,
      "inputs": [
        {
          "indexed": true,
          "internalType": "address",
          "name": "previousOwner",
          "type": "address"
        },
        {
          "indexed": true,
          "internalType": "address",
          "name": "newOwner",
          "type": "address"
        }
      ],
      "name": "OwnershipTransferred",
      "type": "event"
    },
    {
      "inputs": [],
      "name": "addressesProvider",
      "outputs": [
        {
          "internalType": "contract ILendingPoolAddressesProvider",
          "name": "",
          "type": "address"
        }
      ],
      "stateMutability": "view",
      "type": "function"
    },
    {
      "inputs": [
        {
          "internalType": "address",
          "name": "_reserve",
          "type": "address"
        },
        {
          "internalType": "uint256",
          "name": "_amount",
          "type": "uint256"
        },
        {
          "internalType": "uint256",
          "name": "_fee",
          "type": "uint256"
        },
        {
          "internalType": "bytes",
          "name": "_params",
          "type": "bytes"
        }
      ],
      "name": "executeOperation",
      "outputs": [],
      "stateMutability": "nonpayable",
      "type": "function"
    },
    {
      "inputs": [
        {
          "internalType": "address",
          "name": "tokenA",
          "type": "address"
        },
        {
          "internalType": "uint256",
          "name": "amount",
          "type": "uint256"
        },
        {
          "internalType": "address",
          "name": "tokenB",
          "type": "address"
        }
      ],
      "name": "flashLoan",
      "outputs": [],
      "stateMutability": "nonpayable",
      "type": "function"
    },
    {
      "inputs": [],
      "name": "lendingPool",
      "outputs": [
        {
          "internalType": "contract ILendingPool",
          "name": "",
          "type": "address"
        }
      ],
      "stateMutability": "view",
      "type": "function"
    },
    {
      "inputs": [],
      "name": "owner",
      "outputs": [
        {
          "internalType": "address",
          "name": "",
          "type": "address"
        }
      ],
      "stateMutability": "view",
      "type": "function"
    },
    {
      "inputs": [
        {
          "internalType": "uint256",
          "name": "",
          "type": "uint256"
        }
      ],
      "name": "path",
      "outputs": [
        {
          "internalType": "address",
          "name": "",
          "type": "address"
        }
      ],
      "stateMutability": "view",
      "type": "function"
    },
    {
      "inputs": [],
      "name": "renounceOwnership",
      "outputs": [],
      "stateMutability": "nonpayable",
      "type": "function"
    },
    {
      "inputs": [
        {
          "internalType": "address",
          "name": "newOwner",
          "type": "address"
        }
      ],
      "name": "transferOwnership",
      "outputs": [],
      "stateMutability": "nonpayable",
      "type": "function"
    },
    {
      "inputs": [],
      "name": "uniswapV2Router02",
      "outputs": [
        {
          "internalType": "contract IUniswapV2Router02",
          "name": "",
          "type": "address"
        }
      ],
      "stateMutability": "view",
      "type": "function"
    },
    {
      "inputs": [
        {
          "internalType": "address",
          "name": "_assetAddress",
          "type": "address"
        }
      ],
      "name": "withdraw",
      "outputs": [],
      "stateMutability": "nonpayable",
      "type": "function"
    },
    {
      "stateMutability": "payable",
      "type": "receive"
    }
  ],
  "bytecode": "0x608060405234801561001057600080fd5b506040516113ef3803806113ef8339818101604052604081101561003357600080fd5b5080516020909101518060006100506001600160e01b0361015a16565b600080546001600160a01b0319166001600160a01b0383169081178255604051929350917f8be0079c531659141344cd1fd0a4f28419497f9722a3daafe3b4186f6b6457e0908290a350600180546001600160a01b0319166001600160a01b03928316179081905560408051630261bf8b60e01b815290516000939290921691630261bf8b91600480820192602092909190829003018186803b1580156100f657600080fd5b505afa15801561010a573d6000803e3d6000fd5b505050506040513d602081101561012057600080fd5b5051600280546001600160a01b039283166001600160a01b03199182161790915560038054959092169416939093179092555061015e9050565b3390565b6112828061016d6000396000f3fe6080604052600436106100955760003560e01c8063a7c6402c11610059578063a7c6402c14610174578063af6d1fe414610189578063c72c4d10146101b3578063ee872558146101c8578063f2fde38b146102615761009c565b806302c25b54146100a157806351cff8d9146100e6578063715018a6146101195780638da5cb5b1461012e578063a59a99731461015f5761009c565b3661009c57005b600080fd5b3480156100ad57600080fd5b506100e4600480360360608110156100c457600080fd5b506001600160a01b03813581169160208101359160409091013516610294565b005b3480156100f257600080fd5b506100e46004803603602081101561010957600080fd5b50356001600160a01b031661052a565b34801561012557600080fd5b506100e461069d565b34801561013a57600080fd5b5061014361073f565b604080516001600160a01b039092168252519081900360200190f35b34801561016b57600080fd5b5061014361074e565b34801561018057600080fd5b5061014361075d565b34801561019557600080fd5b50610143600480360360208110156101ac57600080fd5b503561076c565b3480156101bf57600080fd5b50610143610793565b3480156101d457600080fd5b506100e4600480360360808110156101eb57600080fd5b6001600160a01b03823516916020810135916040820135919081019060808101606082013564010000000081111561022257600080fd5b82018360208201111561023457600080fd5b8035906020019184600183028401116401000000008311171561025657600080fd5b5090925090506107a2565b34801561026d57600080fd5b506100e46004803603602081101561028457600080fd5b50356001600160a01b0316610bac565b61029c610ca4565b6000546001600160a01b039081169116146102ec576040805162461bcd60e51b815260206004820181905260248201526000805160206111e1833981519152604482015290519081900360640190fd5b604080516001600160a01b0380841660208084019190915283518084038201815283850194859052600254632e7ff4ef60e11b9095523060448501818152848a16606487015260848601899052608060a48701908152835160c488015283518b9894979490961695635cffe9de95939489948c948a949093909260e4019185019080838360005b8381101561038b578181015183820152602001610373565b50505050905090810190601f1680156103b85780820380516001836020036101000a031916815260200191505b5095505050505050600060405180830381600087803b1580156103da57600080fd5b505af11580156103ee573d6000803e3d6000fd5b5050604080516370a0823160e01b81523060048201529051600093506001600160a01b03861692506370a0823191602480820192602092909190829003018186803b15801561043c57600080fd5b505afa158015610450573d6000803e3d6000fd5b505050506040513d602081101561046657600080fd5b50516040805163a9059cbb60e01b81523360048201526024810183905290519192506001600160a01b0385169163a9059cbb916044808201926020929091908290030181600087803b1580156104bb57600080fd5b505af11580156104cf573d6000803e3d6000fd5b505050506040513d60208110156104e557600080fd5b50516105225760405162461bcd60e51b81526004018080602001828103825260228152602001806112016022913960400191505060405180910390fd5b505050505050565b610532610ca4565b6000546001600160a01b03908116911614610582576040805162461bcd60e51b815260206004820181905260248201526000805160206111e1833981519152604482015290519081900360640190fd5b60006001600160a01b0382166105cb575060405130803191339083156108fc029084906000818181858888f193505050501580156105c4573d6000803e3d6000fd5b5050610659565b604080516370a0823160e01b815230600482015290516001600160a01b038416916370a08231916024808301926020929190829003018186803b15801561061157600080fd5b505afa158015610625573d6000803e3d6000fd5b505050506040513d602081101561063b57600080fd5b505190506106596001600160a01b038316338363ffffffff610ca816565b6040805182815290516001600160a01b0384169133917f9207361cc2a04b9c7a06691df1eb87c6a63957ae88bf01d0d18c81e3d12720999181900360200190a35050565b6106a5610ca4565b6000546001600160a01b039081169116146106f5576040805162461bcd60e51b815260206004820181905260248201526000805160206111e1833981519152604482015290519081900360640190fd5b600080546040516001600160a01b03909116907f8be0079c531659141344cd1fd0a4f28419497f9722a3daafe3b4186f6b6457e0908390a3600080546001600160a01b0319169055565b6000546001600160a01b031690565b6002546001600160a01b031681565b6003546001600160a01b031681565b6004818154811061077957fe5b6000918252602090912001546001600160a01b0316905081565b6001546001600160a01b031681565b6107ac3086610cff565b8411156107ea5760405162461bcd60e51b815260040180806020018281038252602e8152602001806111b3602e913960400191505060405180910390fd5b6000828260208110156107fc57600080fd5b50356001600160a01b031690506000610813610dc2565b6003546040805163095ea7b360e01b81526001600160a01b039283166004820152602481018a9052905192935089929183169163095ea7b3916044808201926020929091908290030181600087803b15801561086e57600080fd5b505af1158015610882573d6000803e3d6000fd5b505050506040513d602081101561089857600080fd5b50516108eb576040805162461bcd60e51b815260206004820152601d60248201527f436f756c64206e6f7420617070726f766520546f6b656e412073656c6c000000604482015290519081900360640190fd5b6004889080600181540180825580915050600190039060005260206000200160009091909190916101000a8154816001600160a01b0302191690836001600160a01b031602179055506004839080600181540180825580915050600190039060005260206000200160009091909190916101000a8154816001600160a01b0302191690836001600160a01b031602179055506060600360009054906101000a90046001600160a01b03166001600160a01b03166338ed1739896001600430886040518663ffffffff1660e01b81526004018086815260200185815260200180602001846001600160a01b03166001600160a01b031681526020018381526020018281038252858181548152602001915080548015610a3257602002820191906000526020600020905b81546001600160a01b03168152600190910190602001808311610a14575b50509650505050505050600060405180830381600087803b158015610a5657600080fd5b505af1158015610a6a573d6000803e3d6000fd5b505050506040513d6000823e601f3d908101601f191682016040526020811015610a9357600080fd5b8101908080516040519392919084640100000000821115610ab357600080fd5b908301906020820185811115610ac857600080fd5b8251866020820283011164010000000082111715610ae557600080fd5b82525081516020918201928201910280838360005b83811015610b12578181015183820152602001610afa565b5050505090500160405250505090506000610b36888a610dca90919063ffffffff16565b9050610b42308b610cff565b811115610b96576040805162461bcd60e51b815260206004820152601d60248201527f466c6173684c6f616e2046656520616d6f756e74206e6f74206d65742e000000604482015290519081900360640190fd5b610ba08a82610e2b565b50505050505050505050565b610bb4610ca4565b6000546001600160a01b03908116911614610c04576040805162461bcd60e51b815260206004820181905260248201526000805160206111e1833981519152604482015290519081900360640190fd5b6001600160a01b038116610c495760405162461bcd60e51b815260040180806020018281038252602681526020018061118d6026913960400191505060405180910390fd5b600080546040516001600160a01b03808516939216917f8be0079c531659141344cd1fd0a4f28419497f9722a3daafe3b4186f6b6457e091a3600080546001600160a01b0319166001600160a01b0392909216919091179055565b3390565b604080516001600160a01b038416602482015260448082018490528251808303909101815260649091019091526020810180516001600160e01b031663a9059cbb60e01b179052610cfa908490610ea9565b505050565b60006001600160a01b03821673eeeeeeeeeeeeeeeeeeeeeeeeeeeeeeeeeeeeeeee1415610d3757506001600160a01b03821631610dbc565b816001600160a01b03166370a08231846040518263ffffffff1660e01b815260040180826001600160a01b03166001600160a01b0316815260200191505060206040518083038186803b158015610d8d57600080fd5b505afa158015610da1573d6000803e3d6000fd5b505050506040513d6020811015610db757600080fd5b505190505b92915050565b610bb8420190565b600082820183811015610e24576040805162461bcd60e51b815260206004820152601b60248201527f536166654d6174683a206164646974696f6e206f766572666c6f770000000000604482015290519081900360640190fd5b9392505050565b6001546040805163076b7fbb60e51b815290516000926001600160a01b03169163ed6ff760916004808301926020929190829003018186803b158015610e7057600080fd5b505afa158015610e84573d6000803e3d6000fd5b505050506040513d6020811015610e9a57600080fd5b50519050610cfa818484611067565b610ebb826001600160a01b0316611150565b610f0c576040805162461bcd60e51b815260206004820152601f60248201527f5361666545524332303a2063616c6c20746f206e6f6e2d636f6e747261637400604482015290519081900360640190fd5b60006060836001600160a01b0316836040518082805190602001908083835b60208310610f4a5780518252601f199092019160209182019101610f2b565b6001836020036101000a0380198251168184511680821785525050505050509050019150506000604051808303816000865af19150503d8060008114610fac576040519150601f19603f3d011682016040523d82523d6000602084013e610fb1565b606091505b509150915081611008576040805162461bcd60e51b815260206004820181905260248201527f5361666545524332303a206c6f772d6c6576656c2063616c6c206661696c6564604482015290519081900360640190fd5b8051156110615780806020019051602081101561102457600080fd5b50516110615760405162461bcd60e51b815260040180806020018281038252602a815260200180611223602a913960400191505060405180910390fd5b50505050565b6001600160a01b03821673eeeeeeeeeeeeeeeeeeeeeeeeeeeeeeeeeeeeeeee1415611136576040516000906001600160a01b0385169083908381818185875af1925050503d80600081146110d7576040519150601f19603f3d011682016040523d82523d6000602084013e6110dc565b606091505b5090915050600181151514611130576040805162461bcd60e51b8152602060048201526015602482015274086deead8c8dc4ee840e8e4c2dce6cccae4408aa89605b1b604482015290519081900360640190fd5b50610cfa565b610cfa6001600160a01b038316848363ffffffff610ca816565b6000813f7fc5d2460186f7233c927e7db2dcc703c0e500b653ca82273b7bfad8045d85a47081811480159061118457508115155b94935050505056fe4f776e61626c653a206e6577206f776e657220697320746865207a65726f2061646472657373496e76616c69642062616c616e63652c207761732074686520666c6173684c6f616e207375636365737366756c3f4f776e61626c653a2063616c6c6572206973206e6f7420746865206f776e6572436f756c64206e6f74207472616e73666572206261636b207468652070726f6669745361666545524332303a204552433230206f7065726174696f6e20646964206e6f742073756363656564a2646970667358221220b262ffefd60a99eb221f3ac7fd44748a5e5cfe388fe9d63d6828d55756ebc8a364736f6c63430006060033",
  "linkReferences": {},
  "deployedLinkReferences": {}
}