{
  "_format": "hh-sol-artifact-1",
  "contractName": "ERC20SnapshotMock",
  "sourceName": "contracts/oz/mocks/ERC20SnapshotMock.sol",
  "abi": [
    {
      "inputs": [
        {
          "internalType": "string",
          "name": "name",
          "type": "string"
        },
        {
          "internalType": "string",
          "name": "symbol",
          "type": "string"
        },
        {
          "internalType": "address",
          "name": "initialAccount",
          "type": "address"
        },
        {
          "internalType": "uint256",
          "name": "initialBalance",
          "type": "uint256"
        }
      ],
      "stateMutability": "nonpayable",
      "type": "constructor"
    },
    {
      "anonymous": false,
      "inputs": [
        {
          "indexed": true,
          "internalType": "address",
          "name": "owner",
          "type": "address"
        },
        {
          "indexed": true,
          "internalType": "address",
          "name": "spender",
          "type": "address"
        },
        {
          "indexed": false,
          "internalType": "uint256",
          "name": "value",
          "type": "uint256"
        }
      ],
      "name": "Approval",
      "type": "event"
    },
    {
      "anonymous": false,
      "inputs": [
        {
          "indexed": false,
          "internalType": "uint256",
          "name": "id",
          "type": "uint256"
        }
      ],
      "name": "Snapshot",
      "type": "event"
    },
    {
      "anonymous": false,
      "inputs": [
        {
          "indexed": true,
          "internalType": "address",
          "name": "from",
          "type": "address"
        },
        {
          "indexed": true,
          "internalType": "address",
          "name": "to",
          "type": "address"
        },
        {
          "indexed": false,
          "internalType": "uint256",
          "name": "value",
          "type": "uint256"
        }
      ],
      "name": "Transfer",
      "type": "event"
    },
    {
      "inputs": [
        {
          "internalType": "address",
          "name": "owner",
          "type": "address"
        },
        {
          "internalType": "address",
          "name": "spender",
          "type": "address"
        }
      ],
      "name": "allowance",
      "outputs": [
        {
          "internalType": "uint256",
          "name": "",
          "type": "uint256"
        }
      ],
      "stateMutability": "view",
      "type": "function"
    },
    {
      "inputs": [
        {
          "internalType": "address",
          "name": "spender",
          "type": "address"
        },
        {
          "internalType": "uint256",
          "name": "amount",
          "type": "uint256"
        }
      ],
      "name": "approve",
      "outputs": [
        {
          "internalType": "bool",
          "name": "",
          "type": "bool"
        }
      ],
      "stateMutability": "nonpayable",
      "type": "function"
    },
    {
      "inputs": [
        {
          "internalType": "address",
          "name": "account",
          "type": "address"
        }
      ],
      "name": "balanceOf",
      "outputs": [
        {
          "internalType": "uint256",
          "name": "",
          "type": "uint256"
        }
      ],
      "stateMutability": "view",
      "type": "function"
    },
    {
      "inputs": [
        {
          "internalType": "address",
          "name": "account",
          "type": "address"
        },
        {
          "internalType": "uint256",
          "name": "snapshotId",
          "type": "uint256"
        }
      ],
      "name": "balanceOfAt",
      "outputs": [
        {
          "internalType": "uint256",
          "name": "",
          "type": "uint256"
        }
      ],
      "stateMutability": "view",
      "type": "function"
    },
    {
      "inputs": [
        {
          "internalType": "address",
          "name": "account",
          "type": "address"
        },
        {
          "internalType": "uint256",
          "name": "amount",
          "type": "uint256"
        }
      ],
      "name": "burn",
      "outputs": [],
      "stateMutability": "nonpayable",
      "type": "function"
    },
    {
      "inputs": [],
      "name": "decimals",
      "outputs": [
        {
          "internalType": "uint8",
          "name": "",
          "type": "uint8"
        }
      ],
      "stateMutability": "view",
      "type": "function"
    },
    {
      "inputs": [
        {
          "internalType": "address",
          "name": "spender",
          "type": "address"
        },
        {
          "internalType": "uint256",
          "name": "subtractedValue",
          "type": "uint256"
        }
      ],
      "name": "decreaseAllowance",
      "outputs": [
        {
          "internalType": "bool",
          "name": "",
          "type": "bool"
        }
      ],
      "stateMutability": "nonpayable",
      "type": "function"
    },
    {
      "inputs": [
        {
          "internalType": "address",
          "name": "spender",
          "type": "address"
        },
        {
          "internalType": "uint256",
          "name": "addedValue",
          "type": "uint256"
        }
      ],
      "name": "increaseAllowance",
      "outputs": [
        {
          "internalType": "bool",
          "name": "",
          "type": "bool"
        }
      ],
      "stateMutability": "nonpayable",
      "type": "function"
    },
    {
      "inputs": [
        {
          "internalType": "address",
          "name": "account",
          "type": "address"
        },
        {
          "internalType": "uint256",
          "name": "amount",
          "type": "uint256"
        }
      ],
      "name": "mint",
      "outputs": [],
      "stateMutability": "nonpayable",
      "type": "function"
    },
    {
      "inputs": [],
      "name": "name",
      "outputs": [
        {
          "internalType": "string",
          "name": "",
          "type": "string"
        }
      ],
      "stateMutability": "view",
      "type": "function"
    },
    {
      "inputs": [],
      "name": "snapshot",
      "outputs": [],
      "stateMutability": "nonpayable",
      "type": "function"
    },
    {
      "inputs": [],
      "name": "symbol",
      "outputs": [
        {
          "internalType": "string",
          "name": "",
          "type": "string"
        }
      ],
      "stateMutability": "view",
      "type": "function"
    },
    {
      "inputs": [],
      "name": "totalSupply",
      "outputs": [
        {
          "internalType": "uint256",
          "name": "",
          "type": "uint256"
        }
      ],
      "stateMutability": "view",
      "type": "function"
    },
    {
      "inputs": [
        {
          "internalType": "uint256",
          "name": "snapshotId",
          "type": "uint256"
        }
      ],
      "name": "totalSupplyAt",
      "outputs": [
        {
          "internalType": "uint256",
          "name": "",
          "type": "uint256"
        }
      ],
      "stateMutability": "view",
      "type": "function"
    },
    {
      "inputs": [
        {
          "internalType": "address",
          "name": "recipient",
          "type": "address"
        },
        {
          "internalType": "uint256",
          "name": "amount",
          "type": "uint256"
        }
      ],
      "name": "transfer",
      "outputs": [
        {
          "internalType": "bool",
          "name": "",
          "type": "bool"
        }
      ],
      "stateMutability": "nonpayable",
      "type": "function"
    },
    {
      "inputs": [
        {
          "internalType": "address",
          "name": "sender",
          "type": "address"
        },
        {
          "internalType": "address",
          "name": "recipient",
          "type": "address"
        },
        {
          "internalType": "uint256",
          "name": "amount",
          "type": "uint256"
        }
      ],
      "name": "transferFrom",
      "outputs": [
        {
          "internalType": "bool",
          "name": "",
          "type": "bool"
        }
      ],
      "stateMutability": "nonpayable",
      "type": "function"
    }
  ],
  "bytecode": "0x60806040523480156200001157600080fd5b506040516200171638038062001716833981810160405260808110156200003757600080fd5b81019080805160405193929190846401000000008211156200005857600080fd5b9083019060208201858111156200006e57600080fd5b82516401000000008111828201881017156200008957600080fd5b82525081516020918201929091019080838360005b83811015620000b85781810151838201526020016200009e565b50505050905090810190601f168015620000e65780820380516001836020036101000a031916815260200191505b50604052602001805160405193929190846401000000008211156200010a57600080fd5b9083019060208201858111156200012057600080fd5b82516401000000008111828201881017156200013b57600080fd5b82525081516020918201929091019080838360005b838110156200016a57818101518382015260200162000150565b50505050905090810190601f168015620001985780820380516001836020036101000a031916815260200191505b50604090815260208281015192909101518651929450925085918591620001c591600391850190620004f1565b508051620001db906004906020840190620004f1565b50506005805460ff19166012179055506200020082826001600160e01b036200020a16565b5050505062000593565b6200021e826001600160e01b036200024c16565b620002316001600160e01b036200028f16565b620002488282620002aa60201b62000c5f1760201c565b5050565b6001600160a01b03811660009081526006602052604090206200028c906200027d836001600160e01b03620003c216565b6001600160e01b03620003e116565b50565b620002a860076200027d6001600160e01b036200044b16565b565b6001600160a01b03821662000306576040805162461bcd60e51b815260206004820152601f60248201527f45524332303a206d696e7420746f20746865207a65726f206164647265737300604482015290519081900360640190fd5b6200031d600083836001600160e01b036200044616565b62000339816002546200045260201b620008d11790919060201c565b6002556001600160a01b038216600090815260208181526040909120546200036c918390620008d162000452821b17901c565b6001600160a01b0383166000818152602081815260408083209490945583518581529351929391927fddf252ad1be2c89b69c2b068fc378daa952ba7f163c4a11628f55a4df523b3ef9281900390910190a35050565b6001600160a01b0381166000908152602081905260409020545b919050565b6000620003fa6009620004b460201b62000d5b1760201c565b90508062000411846001600160e01b03620004b816565b101562000446578254600181810185556000858152602080822090930184905581860180549283018155815291909120018290555b505050565b6002545b90565b600082820183811015620004ad576040805162461bcd60e51b815260206004820152601b60248201527f536166654d6174683a206164646974696f6e206f766572666c6f770000000000604482015290519081900360640190fd5b9392505050565b5490565b8054600090620004cb57506000620003dc565b815482906000198101908110620004de57fe5b90600052602060002001549050620003dc565b828054600181600116156101000203166002900490600052602060002090601f016020900481019282601f106200053457805160ff191683800117855562000564565b8280016001018555821562000564579182015b828111156200056457825182559160200191906001019062000547565b506200057292915062000576565b5090565b6200044f91905b808211156200057257600081556001016200057d565b61117380620005a36000396000f3fe608060405234801561001057600080fd5b50600436106101005760003560e01c806370a08231116100975780639dc29fac116100665780639dc29fac14610309578063a457c2d714610335578063a9059cbb14610361578063dd62ed3e1461038d57610100565b806370a08231146102b657806395d89b41146102dc5780639711715a146102e4578063981b24d0146102ec57610100565b8063313ce567116100d3578063313ce56714610212578063395093511461023057806340c10f191461025c5780634ee2cd7e1461028a57610100565b806306fdde0314610105578063095ea7b31461018257806318160ddd146101c257806323b872dd146101dc575b600080fd5b61010d6103bb565b6040805160208082528351818301528351919283929083019185019080838360005b8381101561014757818101518382015260200161012f565b50505050905090810190601f1680156101745780820380516001836020036101000a031916815260200191505b509250505060405180910390f35b6101ae6004803603604081101561019857600080fd5b506001600160a01b038135169060200135610451565b604080519115158252519081900360200190f35b6101ca61046f565b60408051918252519081900360200190f35b6101ae600480360360608110156101f257600080fd5b506001600160a01b03813581169160208101359091169060400135610475565b61021a610502565b6040805160ff9092168252519081900360200190f35b6101ae6004803603604081101561024657600080fd5b506001600160a01b03813516906020013561050b565b6102886004803603604081101561027257600080fd5b506001600160a01b03813516906020013561055f565b005b6101ca600480360360408110156102a057600080fd5b506001600160a01b03813516906020013561056d565b6101ca600480360360208110156102cc57600080fd5b50356001600160a01b03166105b6565b61010d6105d5565b610288610636565b6101ca6004803603602081101561030257600080fd5b5035610641565b6102886004803603604081101561031f57600080fd5b506001600160a01b038135169060200135610671565b6101ae6004803603604081101561034b57600080fd5b506001600160a01b03813516906020013561067b565b6101ae6004803603604081101561037757600080fd5b506001600160a01b0381351690602001356106e9565b6101ca600480360360408110156103a357600080fd5b506001600160a01b03813581169160200135166106fd565b60038054604080516020601f60026000196101006001881615020190951694909404938401819004810282018101909252828152606093909290918301828280156104475780601f1061041c57610100808354040283529160200191610447565b820191906000526020600020905b81548152906001019060200180831161042a57829003601f168201915b5050505050905090565b600061046561045e610728565b848461072c565b5060015b92915050565b60025490565b6000610482848484610818565b6104f88461048e610728565b6104f385604051806060016040528060288152602001611087602891396001600160a01b038a166000908152600160205260408120906104cc610728565b6001600160a01b03168152602081019190915260400160002054919063ffffffff61083a16565b61072c565b5060019392505050565b60055460ff1690565b6000610465610518610728565b846104f38560016000610529610728565b6001600160a01b03908116825260208083019390935260409182016000908120918c16815292529020549063ffffffff6108d116565b6105698282610932565b5050565b6001600160a01b03821660009081526006602052604081208190819061059490859061094d565b91509150816105ab576105a6856105b6565b6105ad565b805b95945050505050565b6001600160a01b0381166000908152602081905260409020545b919050565b60048054604080516020601f60026000196101006001881615020190951694909404938401819004810282018101909252828152606093909290918301828280156104475780601f1061041c57610100808354040283529160200191610447565b61063e610a50565b50565b600080600061065184600761094d565b91509150816106675761066261046f565b610669565b805b949350505050565b6105698282610aa4565b6000610465610688610728565b846104f38560405180606001604052806025815260200161111960259139600160006106b2610728565b6001600160a01b03908116825260208083019390935260409182016000908120918d1681529252902054919063ffffffff61083a16565b60006104656106f6610728565b8484610818565b6001600160a01b03918216600090815260016020908152604080832093909416825291909152205490565b3390565b6001600160a01b0383166107715760405162461bcd60e51b81526004018080602001828103825260248152602001806110f56024913960400191505060405180910390fd5b6001600160a01b0382166107b65760405162461bcd60e51b815260040180806020018281038252602281526020018061103f6022913960400191505060405180910390fd5b6001600160a01b03808416600081815260016020908152604080832094871680845294825291829020859055815185815291517f8c5be1e5ebec7d5bd14f71427d1e84f3dd0314c0f7b2291e5b200ac8c7c3b9259281900390910190a3505050565b61082183610abf565b61082a82610abf565b610835838383610ae9565b505050565b600081848411156108c95760405162461bcd60e51b81526004018080602001828103825283818151815260200191508051906020019080838360005b8381101561088e578181015183820152602001610876565b50505050905090810190601f1680156108bb5780820380516001836020036101000a031916815260200191505b509250505060405180910390fd5b505050900390565b60008282018381101561092b576040805162461bcd60e51b815260206004820152601b60248201527f536166654d6174683a206164646974696f6e206f766572666c6f770000000000604482015290519081900360640190fd5b9392505050565b61093b82610abf565b610943610c50565b6105698282610c5f565b6000806000841161099e576040805162461bcd60e51b815260206004820152601660248201527504552433230536e617073686f743a20696420697320360541b604482015290519081900360640190fd5b6109a86009610d5b565b8411156109fc576040805162461bcd60e51b815260206004820152601d60248201527f4552433230536e617073686f743a206e6f6e6578697374656e74206964000000604482015290519081900360640190fd5b6000610a0e848663ffffffff610d5f16565b8454909150811415610a27575060009150819050610a49565b6001846001018281548110610a3857fe5b906000526020600020015492509250505b9250929050565b6000610a5c6009610e00565b6000610a686009610d5b565b6040805182815290519192507f8030e83b04d87bef53480e26263266d6ca66863aa8506aca6f2559d18aa1cb67919081900360200190a1905090565b610aad82610abf565b610ab5610c50565b6105698282610e09565b6001600160a01b038116600090815260066020526040902061063e90610ae4836105b6565b610f11565b6001600160a01b038316610b2e5760405162461bcd60e51b81526004018080602001828103825260258152602001806110d06025913960400191505060405180910390fd5b6001600160a01b038216610b735760405162461bcd60e51b8152600401808060200182810382526023815260200180610ffa6023913960400191505060405180910390fd5b610b7e838383610835565b610bc181604051806060016040528060268152602001611061602691396001600160a01b038616600090815260208190526040902054919063ffffffff61083a16565b6001600160a01b038085166000908152602081905260408082209390935590841681522054610bf6908263ffffffff6108d116565b6001600160a01b038084166000818152602081815260409182902094909455805185815290519193928716927fddf252ad1be2c89b69c2b068fc378daa952ba7f163c4a11628f55a4df523b3ef92918290030190a3505050565b610c5d6007610ae461046f565b565b6001600160a01b038216610cba576040805162461bcd60e51b815260206004820152601f60248201527f45524332303a206d696e7420746f20746865207a65726f206164647265737300604482015290519081900360640190fd5b610cc660008383610835565b600254610cd9908263ffffffff6108d116565b6002556001600160a01b038216600090815260208190526040902054610d05908263ffffffff6108d116565b6001600160a01b0383166000818152602081815260408083209490945583518581529351929391927fddf252ad1be2c89b69c2b068fc378daa952ba7f163c4a11628f55a4df523b3ef9281900390910190a35050565b5490565b8154600090610d7057506000610469565b82546000905b80821015610dbf576000610d8a8383610f5d565b905084868281548110610d9957fe5b90600052602060002001541115610db257809150610db9565b8060010192505b50610d76565b600082118015610de7575083856001840381548110610dda57fe5b9060005260206000200154145b15610df85750600019019050610469565b509050610469565b80546001019055565b6001600160a01b038216610e4e5760405162461bcd60e51b81526004018080602001828103825260218152602001806110af6021913960400191505060405180910390fd5b610e5a82600083610835565b610e9d8160405180606001604052806022815260200161101d602291396001600160a01b038516600090815260208190526040902054919063ffffffff61083a16565b6001600160a01b038316600090815260208190526040902055600254610ec9908263ffffffff610f8216565b6002556040805182815290516000916001600160a01b038516917fddf252ad1be2c89b69c2b068fc378daa952ba7f163c4a11628f55a4df523b3ef9181900360200190a35050565b6000610f1d6009610d5b565b905080610f2984610fc4565b1015610835578254600180820185556000858152602080822090930193909355938401805494850181558252902090910155565b60006002808306600285060181610f7057fe5b04600283046002850401019392505050565b600061092b83836040518060400160405280601e81526020017f536166654d6174683a207375627472616374696f6e206f766572666c6f77000081525061083a565b8054600090610fd5575060006105d0565b815482906000198101908110610fe757fe5b906000526020600020015490506105d056fe45524332303a207472616e7366657220746f20746865207a65726f206164647265737345524332303a206275726e20616d6f756e7420657863656564732062616c616e636545524332303a20617070726f766520746f20746865207a65726f206164647265737345524332303a207472616e7366657220616d6f756e7420657863656564732062616c616e636545524332303a207472616e7366657220616d6f756e74206578636565647320616c6c6f77616e636545524332303a206275726e2066726f6d20746865207a65726f206164647265737345524332303a207472616e736665722066726f6d20746865207a65726f206164647265737345524332303a20617070726f76652066726f6d20746865207a65726f206164647265737345524332303a2064656372656173656420616c6c6f77616e63652062656c6f77207a65726fa2646970667358221220930423613898ce4d66d3476b59500420ba7ee649a06c9ebf093a6d00350105eb64736f6c63430006060033",
  "linkReferences": {},
  "deployedLinkReferences": {}
}