{
  "_format": "hh-sol-artifact-1",
  "contractName": "EnumerableMapMock",
  "sourceName": "contracts/oz/mocks/EnumerableMapMock.sol",
  "abi": [
    {
      "anonymous": false,
      "inputs": [
        {
          "indexed": false,
          "internalType": "bool",
          "name": "result",
          "type": "bool"
        }
      ],
      "name": "OperationResult",
      "type": "event"
    },
    {
      "inputs": [
        {
          "internalType": "uint256",
          "name": "index",
          "type": "uint256"
        }
      ],
      "name": "at",
      "outputs": [
        {
          "internalType": "uint256",
          "name": "key",
          "type": "uint256"
        },
        {
          "internalType": "address",
          "name": "value",
          "type": "address"
        }
      ],
      "stateMutability": "view",
      "type": "function"
    },
    {
      "inputs": [
        {
          "internalType": "uint256",
          "name": "key",
          "type": "uint256"
        }
      ],
      "name": "contains",
      "outputs": [
        {
          "internalType": "bool",
          "name": "",
          "type": "bool"
        }
      ],
      "stateMutability": "view",
      "type": "function"
    },
    {
      "inputs": [
        {
          "internalType": "uint256",
          "name": "key",
          "type": "uint256"
        }
      ],
      "name": "get",
      "outputs": [
        {
          "internalType": "address",
          "name": "",
          "type": "address"
        }
      ],
      "stateMutability": "view",
      "type": "function"
    },
    {
      "inputs": [],
      "name": "length",
      "outputs": [
        {
          "internalType": "uint256",
          "name": "",
          "type": "uint256"
        }
      ],
      "stateMutability": "view",
      "type": "function"
    },
    {
      "inputs": [
        {
          "internalType": "uint256",
          "name": "key",
          "type": "uint256"
        }
      ],
      "name": "remove",
      "outputs": [],
      "stateMutability": "nonpayable",
      "type": "function"
    },
    {
      "inputs": [
        {
          "internalType": "uint256",
          "name": "key",
          "type": "uint256"
        },
        {
          "internalType": "address",
          "name": "value",
          "type": "address"
        }
      ],
      "name": "set",
      "outputs": [],
      "stateMutability": "nonpayable",
      "type": "function"
    }
  ],
  "bytecode": "0x608060405234801561001057600080fd5b50610646806100206000396000f3fe608060405234801561001057600080fd5b50600436106100625760003560e01c80631f7b6d32146100675780632f30c6f6146100815780634cc82215146100af5780639507d39a146100cc578063c34052e014610105578063e0886f9014610136575b600080fd5b61006f610174565b60408051918252519081900360200190f35b6100ad6004803603604081101561009757600080fd5b50803590602001356001600160a01b0316610185565b005b6100ad600480360360208110156100c557600080fd5b50356101d6565b6100e9600480360360208110156100e257600080fd5b5035610225565b604080516001600160a01b039092168252519081900360200190f35b6101226004803603602081101561011b57600080fd5b503561023d565b604080519115158252519081900360200190f35b6101536004803603602081101561014c57600080fd5b503561024f565b604080519283526001600160a01b0390911660208301528051918290030190f35b6000610180600061026b565b905090565b600061019881848463ffffffff61027616565b60408051821515815290519192507fed9840e0775590557ad736875d96c95cf1458b766335f74339951a32c82a9e33919081900360200190a1505050565b60006101e8818363ffffffff61029616565b60408051821515815290519192507fed9840e0775590557ad736875d96c95cf1458b766335f74339951a32c82a9e33919081900360200190a15050565b6000610237818363ffffffff6102a216565b92915050565b6000610237818363ffffffff6102ae16565b600080610262818463ffffffff6102ba16565b91509150915091565b6000610237826102d6565b600061028c84846001600160a01b0385166102da565b90505b9392505050565b600061028f8383610371565b600061028f838361044f565b600061028f8383610491565b60008080806102c986866104a9565b9097909650945050505050565b5490565b60008281526001840160205260408120548061033f57505060408051808201825283815260208082018481528654600181810189556000898152848120955160029093029095019182559151908201558654868452818801909252929091205561028f565b8285600001600183038154811061035257fe5b906000526020600020906002020160010181905550600091505061028f565b6000818152600183016020526040812054801561044557835460001980830191908101906000908790839081106103a457fe5b90600052602060002090600202019050808760000184815481106103c457fe5b60009182526020808320845460029093020191825560019384015491840191909155835482528983019052604090209084019055865487908061040357fe5b60008281526020808220600260001990940193840201828155600190810183905592909355888152898201909252604082209190915594506102379350505050565b6000915050610237565b600061028f83836040518060400160405280601e81526020017f456e756d657261626c654d61703a206e6f6e6578697374656e74206b65790000815250610524565b60009081526001919091016020526040902054151590565b8154600090819083106104ed5760405162461bcd60e51b81526004018080602001828103825260228152602001806105ef6022913960400191505060405180910390fd5b60008460000184815481106104fe57fe5b906000526020600020906002020190508060000154816001015492509250509250929050565b600082815260018401602052604081205482816105bf5760405162461bcd60e51b81526004018080602001828103825283818151815260200191508051906020019080838360005b8381101561058457818101518382015260200161056c565b50505050905090810190601f1680156105b15780820380516001836020036101000a031916815260200191505b509250505060405180910390fd5b508460000160018203815481106105d257fe5b906000526020600020906002020160010154915050939250505056fe456e756d657261626c654d61703a20696e646578206f7574206f6620626f756e6473a264697066735822122014594e487a14c6dca787df378ab594c6428c9bee6a3972940a41a0fc37aa60aa64736f6c63430006060033",
  "linkReferences": {},
  "deployedLinkReferences": {}
}